{
  "contractName": "supplyChain",
  "abi": [
    {
      "anonymous": false,
      "inputs": [
        {
          "indexed": true,
          "internalType": "uint32",
          "name": "productId",
          "type": "uint32"
        }
      ],
      "name": "TransferOwnership",
      "type": "event"
    },
    {
      "inputs": [],
      "name": "owner_id",
      "outputs": [
        {
          "internalType": "uint32",
          "name": "",
          "type": "uint32"
        }
      ],
      "stateMutability": "view",
      "type": "function",
      "constant": true
    },
    {
      "inputs": [
        {
          "internalType": "uint32",
          "name": "",
          "type": "uint32"
        }
      ],
      "name": "ownerships",
      "outputs": [
        {
          "internalType": "uint32",
          "name": "productId",
          "type": "uint32"
        },
        {
          "internalType": "uint32",
          "name": "ownerId",
          "type": "uint32"
        },
        {
          "internalType": "uint32",
          "name": "trxTimeStamp",
          "type": "uint32"
        },
        {
          "internalType": "address",
          "name": "productOwner",
          "type": "address"
        }
      ],
      "stateMutability": "view",
      "type": "function",
      "constant": true
    },
    {
      "inputs": [],
      "name": "participant_id",
      "outputs": [
        {
          "internalType": "uint32",
          "name": "",
          "type": "uint32"
        }
      ],
      "stateMutability": "view",
      "type": "function",
      "constant": true
    },
    {
      "inputs": [
        {
          "internalType": "uint32",
          "name": "",
          "type": "uint32"
        }
      ],
      "name": "participants",
      "outputs": [
        {
          "internalType": "string",
          "name": "userName",
          "type": "string"
        },
        {
          "internalType": "string",
          "name": "password",
          "type": "string"
        },
        {
          "internalType": "string",
          "name": "participantType",
          "type": "string"
        },
        {
          "internalType": "address",
          "name": "participantAddress",
          "type": "address"
        }
      ],
      "stateMutability": "view",
      "type": "function",
      "constant": true
    },
    {
      "inputs": [
        {
          "internalType": "uint32",
          "name": "",
          "type": "uint32"
        },
        {
          "internalType": "uint256",
          "name": "",
          "type": "uint256"
        }
      ],
      "name": "productTrack",
      "outputs": [
        {
          "internalType": "uint32",
          "name": "",
          "type": "uint32"
        }
      ],
      "stateMutability": "view",
      "type": "function",
      "constant": true
    },
    {
      "inputs": [],
      "name": "product_id",
      "outputs": [
        {
          "internalType": "uint32",
          "name": "",
          "type": "uint32"
        }
      ],
      "stateMutability": "view",
      "type": "function",
      "constant": true
    },
    {
      "inputs": [
        {
          "internalType": "uint32",
          "name": "",
          "type": "uint32"
        }
      ],
      "name": "products",
      "outputs": [
        {
          "internalType": "string",
          "name": "modelNumber",
          "type": "string"
        },
        {
          "internalType": "string",
          "name": "partNumber",
          "type": "string"
        },
        {
          "internalType": "string",
          "name": "serialNumber",
          "type": "string"
        },
        {
          "internalType": "address",
          "name": "productOwner",
          "type": "address"
        },
        {
          "internalType": "uint32",
          "name": "cost",
          "type": "uint32"
        },
        {
          "internalType": "uint32",
          "name": "mfgTimeStamp",
          "type": "uint32"
        }
      ],
      "stateMutability": "view",
      "type": "function",
      "constant": true
    },
    {
      "inputs": [
        {
          "internalType": "string",
          "name": "_name",
          "type": "string"
        },
        {
          "internalType": "string",
          "name": "_pass",
          "type": "string"
        },
        {
          "internalType": "address",
          "name": "_pAdd",
          "type": "address"
        },
        {
          "internalType": "string",
          "name": "_pType",
          "type": "string"
        }
      ],
      "name": "addParticipant",
      "outputs": [
        {
          "internalType": "uint32",
          "name": "",
          "type": "uint32"
        }
      ],
      "stateMutability": "nonpayable",
      "type": "function"
    },
    {
      "inputs": [
        {
          "internalType": "uint32",
          "name": "_participant_id",
          "type": "uint32"
        }
      ],
      "name": "getParticipant",
      "outputs": [
        {
          "internalType": "string",
          "name": "",
          "type": "string"
        },
        {
          "internalType": "address",
          "name": "",
          "type": "address"
        },
        {
          "internalType": "string",
          "name": "",
          "type": "string"
        }
      ],
      "stateMutability": "view",
      "type": "function",
      "constant": true
    },
    {
      "inputs": [
        {
          "internalType": "uint32",
          "name": "_ownerId",
          "type": "uint32"
        },
        {
          "internalType": "string",
          "name": "_modelNumber",
          "type": "string"
        },
        {
          "internalType": "string",
          "name": "_partNumber",
          "type": "string"
        },
        {
          "internalType": "string",
          "name": "_serialNumber",
          "type": "string"
        },
        {
          "internalType": "uint32",
          "name": "_productCost",
          "type": "uint32"
        }
      ],
      "name": "addProduct",
      "outputs": [
        {
          "internalType": "uint32",
          "name": "",
          "type": "uint32"
        }
      ],
      "stateMutability": "nonpayable",
      "type": "function"
    },
    {
      "inputs": [
        {
          "internalType": "uint32",
          "name": "_productId",
          "type": "uint32"
        }
      ],
      "name": "getProduct",
      "outputs": [
        {
          "internalType": "string",
          "name": "",
          "type": "string"
        },
        {
          "internalType": "string",
          "name": "",
          "type": "string"
        },
        {
          "internalType": "string",
          "name": "",
          "type": "string"
        },
        {
          "internalType": "uint32",
          "name": "",
          "type": "uint32"
        },
        {
          "internalType": "address",
          "name": "",
          "type": "address"
        },
        {
          "internalType": "uint32",
          "name": "",
          "type": "uint32"
        }
      ],
      "stateMutability": "view",
      "type": "function",
      "constant": true
    },
    {
      "inputs": [
        {
          "internalType": "uint32",
          "name": "_user1Id",
          "type": "uint32"
        },
        {
          "internalType": "uint32",
          "name": "_user2Id",
          "type": "uint32"
        },
        {
          "internalType": "uint32",
          "name": "_prodId",
          "type": "uint32"
        }
      ],
      "name": "newOwner",
      "outputs": [
        {
          "internalType": "bool",
          "name": "",
          "type": "bool"
        }
      ],
      "stateMutability": "nonpayable",
      "type": "function"
    },
    {
      "inputs": [
        {
          "internalType": "uint32",
          "name": "_prodId",
          "type": "uint32"
        }
      ],
      "name": "getProvenance",
      "outputs": [
        {
          "internalType": "uint32[]",
          "name": "",
          "type": "uint32[]"
        }
      ],
      "stateMutability": "view",
      "type": "function",
      "constant": true
    },
    {
      "inputs": [
        {
          "internalType": "uint32",
          "name": "_regId",
          "type": "uint32"
        }
      ],
      "name": "getOwnership",
      "outputs": [
        {
          "internalType": "uint32",
          "name": "",
          "type": "uint32"
        },
        {
          "internalType": "uint32",
          "name": "",
          "type": "uint32"
        },
        {
          "internalType": "address",
          "name": "",
          "type": "address"
        },
        {
          "internalType": "uint32",
          "name": "",
          "type": "uint32"
        }
      ],
      "stateMutability": "view",
      "type": "function",
      "constant": true
    },
    {
      "inputs": [
        {
          "internalType": "uint32",
          "name": "_uid",
          "type": "uint32"
        },
        {
          "internalType": "string",
          "name": "_uname",
          "type": "string"
        },
        {
          "internalType": "string",
          "name": "_pass",
          "type": "string"
        },
        {
          "internalType": "string",
          "name": "_utype",
          "type": "string"
        }
      ],
      "name": "authenticateParticipant",
      "outputs": [
        {
          "internalType": "bool",
          "name": "",
          "type": "bool"
        }
      ],
      "stateMutability": "view",
      "type": "function",
      "constant": true
    }
  ],
  "bytecode": "0x608060405260008060006101000a81548163ffffffff021916908363ffffffff16021790555060008060046101000a81548163ffffffff021916908363ffffffff16021790555060008060086101000a81548163ffffffff021916908363ffffffff16021790555034801561007357600080fd5b50612e63806100836000396000f3fe608060405234801561001057600080fd5b50600436106100f55760003560e01c80638f5ebf7111610097578063df6d23f111610066578063df6d23f11461030a578063eab0a4791461033d578063ebf43a7e1461035b578063fc2da9101461038b576100f5565b80638f5ebf7114610252578063a638ac4914610270578063bf712fd6146102a5578063c8569565146102da576100f5565b806350632104116100d3578063506321041461018c578063721b5743146101bc5780637d0a9ac9146101ec57806381e156101461021f576100f5565b80631a074802146100fa5780632e9d52841461012a5780633b26a65d1461015a575b600080fd5b610114600480360381019061010f9190612397565b6103a9565b60405161012191906123e6565b60405180910390f35b610144600480360381019061013f9190612401565b6103f2565b604051610151919061246f565b60405180910390f35b610174600480360381019061016f919061248a565b611206565b60405161018393929190612591565b60405180910390f35b6101a660048036038101906101a1919061270b565b6113b8565b6040516101b391906123e6565b60405180910390f35b6101d660048036038101906101d191906127da565b61164d565b6040516101e3919061246f565b60405180910390f35b6102066004803603810190610201919061248a565b6117c6565b6040516102169493929190612895565b60405180910390f35b6102396004803603810190610234919061248a565b6119ae565b60405161024994939291906128ef565b60405180910390f35b61025a611a2e565b60405161026791906123e6565b60405180910390f35b61028a6004803603810190610285919061248a565b611a44565b60405161029c96959493929190612934565b60405180910390f35b6102bf60048036038101906102ba919061248a565b611d16565b6040516102d1969594939291906129aa565b60405180910390f35b6102f460048036038101906102ef919061248a565b611f2a565b6040516103019190612ade565b60405180910390f35b610324600480360381019061031f919061248a565b611fcd565b6040516103349493929190612b00565b60405180910390f35b6103456120ed565b60405161035291906123e6565b60405180910390f35b61037560048036038101906103709190612b71565b612101565b60405161038291906123e6565b60405180910390f35b610393612258565b6040516103a091906123e6565b60405180910390f35b600460205281600052604060002081815481106103c557600080fd5b9060005260206000209060089182820401919006600402915091509054906101000a900463ffffffff1681565b600081600160008263ffffffff1663ffffffff16815260200190815260200160002060030160009054906101000a900473ffffffffffffffffffffffffffffffffffffffff1673ffffffffffffffffffffffffffffffffffffffff163373ffffffffffffffffffffffffffffffffffffffff16146104a5576040517f08c379a000000000000000000000000000000000000000000000000000000000815260040161049c90612c52565b60405180910390fd5b6000600260008763ffffffff1663ffffffff1681526020019081526020016000206040518060800160405290816000820180546104e190612ca1565b80601f016020809104026020016040519081016040528092919081815260200182805461050d90612ca1565b801561055a5780601f1061052f5761010080835404028352916020019161055a565b820191906000526020600020905b81548152906001019060200180831161053d57829003601f168201915b5050505050815260200160018201805461057390612ca1565b80601f016020809104026020016040519081016040528092919081815260200182805461059f90612ca1565b80156105ec5780601f106105c1576101008083540402835291602001916105ec565b820191906000526020600020905b8154815290600101906020018083116105cf57829003601f168201915b5050505050815260200160028201805461060590612ca1565b80601f016020809104026020016040519081016040528092919081815260200182805461063190612ca1565b801561067e5780601f106106535761010080835404028352916020019161067e565b820191906000526020600020905b81548152906001019060200180831161066157829003601f168201915b505050505081526020016003820160009054906101000a900473ffffffffffffffffffffffffffffffffffffffff1673ffffffffffffffffffffffffffffffffffffffff1673ffffffffffffffffffffffffffffffffffffffff168152505090506000600260008763ffffffff1663ffffffff16815260200190815260200160002060405180608001604052908160008201805461071b90612ca1565b80601f016020809104026020016040519081016040528092919081815260200182805461074790612ca1565b80156107945780601f1061076957610100808354040283529160200191610794565b820191906000526020600020905b81548152906001019060200180831161077757829003601f168201915b505050505081526020016001820180546107ad90612ca1565b80601f01602080910402602001604051908101604052809291908181526020018280546107d990612ca1565b80156108265780601f106107fb57610100808354040283529160200191610826565b820191906000526020600020905b81548152906001019060200180831161080957829003601f168201915b5050505050815260200160028201805461083f90612ca1565b80601f016020809104026020016040519081016040528092919081815260200182805461086b90612ca1565b80156108b85780601f1061088d576101008083540402835291602001916108b8565b820191906000526020600020905b81548152906001019060200180831161089b57829003601f168201915b505050505081526020016003820160009054906101000a900473ffffffffffffffffffffffffffffffffffffffff1673ffffffffffffffffffffffffffffffffffffffff1673ffffffffffffffffffffffffffffffffffffffff16815250509050600080600881819054906101000a900463ffffffff168092919061093c90612d02565b91906101000a81548163ffffffff021916908363ffffffff16021790555090507fcec9b8e63c868f2f7f30368f1583e7aa39ae80e163d57a859fa5a90244b28ac183604001516040516020016109929190612d6b565b604051602081830303815290604052805190602001201480156109fe57507fb77c7d6bf62fa24fc205955093030c58325cd2d3d35fb486ede7594fb99635f582604001516040516020016109e69190612d6b565b60405160208183030381529060405280519060200120145b15610c3a5785600360008363ffffffff1663ffffffff16815260200190815260200160002060000160006101000a81548163ffffffff021916908363ffffffff1602179055508160600151600360008363ffffffff1663ffffffff168152602001908152602001600020600001600c6101000a81548173ffffffffffffffffffffffffffffffffffffffff021916908373ffffffffffffffffffffffffffffffffffffffff16021790555086600360008363ffffffff1663ffffffff16815260200190815260200160002060000160046101000a81548163ffffffff021916908363ffffffff16021790555042600360008363ffffffff1663ffffffff16815260200190815260200160002060000160086101000a81548163ffffffff021916908363ffffffff1602179055508160600151600160008863ffffffff1663ffffffff16815260200190815260200160002060030160006101000a81548173ffffffffffffffffffffffffffffffffffffffff021916908373ffffffffffffffffffffffffffffffffffffffff160217905550600460008763ffffffff1663ffffffff1681526020019081526020016000208190806001815401808255809150506001900390600052602060002090600891828204019190066004029091909190916101000a81548163ffffffff021916908363ffffffff1602179055508563ffffffff167fa5470ac012c6e9dc500e62b1d3de0de58db49b3ab7cfebbfb126d9abd854199b60405160405180910390a2600194505050506111fe565b7fb77c7d6bf62fa24fc205955093030c58325cd2d3d35fb486ede7594fb99635f58360400151604051602001610c709190612d6b565b60405160208183030381529060405280519060200120148015610cdc57507fb77c7d6bf62fa24fc205955093030c58325cd2d3d35fb486ede7594fb99635f58260400151604051602001610cc49190612d6b565b60405160208183030381529060405280519060200120145b15610f185785600360008363ffffffff1663ffffffff16815260200190815260200160002060000160006101000a81548163ffffffff021916908363ffffffff1602179055508160600151600360008363ffffffff1663ffffffff168152602001908152602001600020600001600c6101000a81548173ffffffffffffffffffffffffffffffffffffffff021916908373ffffffffffffffffffffffffffffffffffffffff16021790555086600360008363ffffffff1663ffffffff16815260200190815260200160002060000160046101000a81548163ffffffff021916908363ffffffff16021790555042600360008363ffffffff1663ffffffff16815260200190815260200160002060000160086101000a81548163ffffffff021916908363ffffffff1602179055508160600151600160008863ffffffff1663ffffffff16815260200190815260200160002060030160006101000a81548173ffffffffffffffffffffffffffffffffffffffff021916908373ffffffffffffffffffffffffffffffffffffffff160217905550600460008763ffffffff1663ffffffff1681526020019081526020016000208190806001815401808255809150506001900390600052602060002090600891828204019190066004029091909190916101000a81548163ffffffff021916908363ffffffff1602179055508563ffffffff167fa5470ac012c6e9dc500e62b1d3de0de58db49b3ab7cfebbfb126d9abd854199b60405160405180910390a2600194505050506111fe565b7fb77c7d6bf62fa24fc205955093030c58325cd2d3d35fb486ede7594fb99635f58360400151604051602001610f4e9190612d6b565b60405160208183030381529060405280519060200120148015610fba57507fc0878b4b16a78e8085cba0ca02fc0924f1492924058d153153a3f286e0fd70ff8260400151604051602001610fa29190612d6b565b60405160208183030381529060405280519060200120145b156111f65785600360008363ffffffff1663ffffffff16815260200190815260200160002060000160006101000a81548163ffffffff021916908363ffffffff1602179055508160600151600360008363ffffffff1663ffffffff168152602001908152602001600020600001600c6101000a81548173ffffffffffffffffffffffffffffffffffffffff021916908373ffffffffffffffffffffffffffffffffffffffff16021790555086600360008363ffffffff1663ffffffff16815260200190815260200160002060000160046101000a81548163ffffffff021916908363ffffffff16021790555042600360008363ffffffff1663ffffffff16815260200190815260200160002060000160086101000a81548163ffffffff021916908363ffffffff1602179055508160600151600160008863ffffffff1663ffffffff16815260200190815260200160002060030160006101000a81548173ffffffffffffffffffffffffffffffffffffffff021916908373ffffffffffffffffffffffffffffffffffffffff160217905550600460008763ffffffff1663ffffffff1681526020019081526020016000208190806001815401808255809150506001900390600052602060002090600891828204019190066004029091909190916101000a81548163ffffffff021916908363ffffffff1602179055508563ffffffff167fa5470ac012c6e9dc500e62b1d3de0de58db49b3ab7cfebbfb126d9abd854199b60405160405180910390a2600194505050506111fe565b600094505050505b509392505050565b606060006060600260008563ffffffff1663ffffffff168152602001908152602001600020600001600260008663ffffffff1663ffffffff16815260200190815260200160002060030160009054906101000a900473ffffffffffffffffffffffffffffffffffffffff16600260008763ffffffff1663ffffffff16815260200190815260200160002060020182805461129f90612ca1565b80601f01602080910402602001604051908101604052809291908181526020018280546112cb90612ca1565b80156113185780601f106112ed57610100808354040283529160200191611318565b820191906000526020600020905b8154815290600101906020018083116112fb57829003601f168201915b5050505050925080805461132b90612ca1565b80601f016020809104026020016040519081016040528092919081815260200182805461135790612ca1565b80156113a45780601f10611379576101008083540402835291602001916113a4565b820191906000526020600020905b81548152906001019060200180831161138757829003601f168201915b505050505090509250925092509193909250565b60007fcec9b8e63c868f2f7f30368f1583e7aa39ae80e163d57a859fa5a90244b28ac1600260008863ffffffff1663ffffffff16815260200190815260200160002060020160405160200161140d9190612e16565b60405160208183030381529060405280519060200120141561163f57600080600081819054906101000a900463ffffffff168092919061144c90612d02565b91906101000a81548163ffffffff021916908363ffffffff160217905550905085600160008363ffffffff1663ffffffff16815260200190815260200160002060000190805190602001906114a292919061226e565b5084600160008363ffffffff1663ffffffff16815260200190815260200160002060010190805190602001906114d992919061226e565b5083600160008363ffffffff1663ffffffff168152602001908152602001600020600201908051906020019061151092919061226e565b5082600160008363ffffffff1663ffffffff16815260200190815260200160002060030160146101000a81548163ffffffff021916908363ffffffff160217905550600260008863ffffffff1663ffffffff16815260200190815260200160002060030160009054906101000a900473ffffffffffffffffffffffffffffffffffffffff16600160008363ffffffff1663ffffffff16815260200190815260200160002060030160006101000a81548173ffffffffffffffffffffffffffffffffffffffff021916908373ffffffffffffffffffffffffffffffffffffffff16021790555042600160008363ffffffff1663ffffffff16815260200190815260200160002060030160186101000a81548163ffffffff021916908363ffffffff16021790555080915050611644565b600090505b95945050505050565b6000816040516020016116609190612d6b565b60405160208183030381529060405280519060200120600260008763ffffffff1663ffffffff1681526020019081526020016000206002016040516020016116a89190612e16565b6040516020818303038152906040528051906020012014156117b957836040516020016116d59190612d6b565b60405160208183030381529060405280519060200120600260008763ffffffff1663ffffffff16815260200190815260200160002060000160405160200161171d9190612e16565b6040516020818303038152906040528051906020012014156117b8578260405160200161174a9190612d6b565b60405160208183030381529060405280519060200120600260008763ffffffff1663ffffffff1681526020019081526020016000206001016040516020016117929190612e16565b6040516020818303038152906040528051906020012014156117b757600190506117be565b5b5b600090505b949350505050565b60026020528060005260406000206000915090508060000180546117e990612ca1565b80601f016020809104026020016040519081016040528092919081815260200182805461181590612ca1565b80156118625780601f1061183757610100808354040283529160200191611862565b820191906000526020600020905b81548152906001019060200180831161184557829003601f168201915b50505050509080600101805461187790612ca1565b80601f01602080910402602001604051908101604052809291908181526020018280546118a390612ca1565b80156118f05780601f106118c5576101008083540402835291602001916118f0565b820191906000526020600020905b8154815290600101906020018083116118d357829003601f168201915b50505050509080600201805461190590612ca1565b80601f016020809104026020016040519081016040528092919081815260200182805461193190612ca1565b801561197e5780601f106119535761010080835404028352916020019161197e565b820191906000526020600020905b81548152906001019060200180831161196157829003601f168201915b5050505050908060030160009054906101000a900473ffffffffffffffffffffffffffffffffffffffff16905084565b60036020528060005260406000206000915090508060000160009054906101000a900463ffffffff16908060000160049054906101000a900463ffffffff16908060000160089054906101000a900463ffffffff169080600001600c9054906101000a900473ffffffffffffffffffffffffffffffffffffffff16905084565b600060089054906101000a900463ffffffff1681565b60608060606000806000600160008863ffffffff1663ffffffff168152602001908152602001600020600001600160008963ffffffff1663ffffffff168152602001908152602001600020600101600160008a63ffffffff1663ffffffff168152602001908152602001600020600201600160008b63ffffffff1663ffffffff16815260200190815260200160002060030160149054906101000a900463ffffffff16600160008c63ffffffff1663ffffffff16815260200190815260200160002060030160009054906101000a900473ffffffffffffffffffffffffffffffffffffffff16600160008d63ffffffff1663ffffffff16815260200190815260200160002060030160189054906101000a900463ffffffff16858054611b6990612ca1565b80601f0160208091040260200160405190810160405280929190818152602001828054611b9590612ca1565b8015611be25780601f10611bb757610100808354040283529160200191611be2565b820191906000526020600020905b815481529060010190602001808311611bc557829003601f168201915b50505050509550848054611bf590612ca1565b80601f0160208091040260200160405190810160405280929190818152602001828054611c2190612ca1565b8015611c6e5780601f10611c4357610100808354040283529160200191611c6e565b820191906000526020600020905b815481529060010190602001808311611c5157829003601f168201915b50505050509450838054611c8190612ca1565b80601f0160208091040260200160405190810160405280929190818152602001828054611cad90612ca1565b8015611cfa5780601f10611ccf57610100808354040283529160200191611cfa565b820191906000526020600020905b815481529060010190602001808311611cdd57829003601f168201915b5050505050935095509550955095509550955091939550919395565b6001602052806000526040600020600091509050806000018054611d3990612ca1565b80601f0160208091040260200160405190810160405280929190818152602001828054611d6590612ca1565b8015611db25780601f10611d8757610100808354040283529160200191611db2565b820191906000526020600020905b815481529060010190602001808311611d9557829003601f168201915b505050505090806001018054611dc790612ca1565b80601f0160208091040260200160405190810160405280929190818152602001828054611df390612ca1565b8015611e405780601f10611e1557610100808354040283529160200191611e40565b820191906000526020600020905b815481529060010190602001808311611e2357829003601f168201915b505050505090806002018054611e5590612ca1565b80601f0160208091040260200160405190810160405280929190818152602001828054611e8190612ca1565b8015611ece5780601f10611ea357610100808354040283529160200191611ece565b820191906000526020600020905b815481529060010190602001808311611eb157829003601f168201915b5050505050908060030160009054906101000a900473ffffffffffffffffffffffffffffffffffffffff16908060030160149054906101000a900463ffffffff16908060030160189054906101000a900463ffffffff16905086565b6060600460008363ffffffff1663ffffffff168152602001908152602001600020805480602002602001604051908101604052809291908181526020018280548015611fc157602002820191906000526020600020906000905b82829054906101000a900463ffffffff1663ffffffff1681526020019060040190602082600301049283019260010382029150808411611f845790505b50505050509050919050565b6000806000806000600360008763ffffffff1663ffffffff1681526020019081526020016000206040518060800160405290816000820160009054906101000a900463ffffffff1663ffffffff1663ffffffff1681526020016000820160049054906101000a900463ffffffff1663ffffffff1663ffffffff1681526020016000820160089054906101000a900463ffffffff1663ffffffff1663ffffffff16815260200160008201600c9054906101000a900473ffffffffffffffffffffffffffffffffffffffff1673ffffffffffffffffffffffffffffffffffffffff1673ffffffffffffffffffffffffffffffffffffffff1681525050905080600001518160200151826060015183604001519450945094509450509193509193565b60008054906101000a900463ffffffff1681565b6000806000600481819054906101000a900463ffffffff168092919061212690612d02565b91906101000a81548163ffffffff021916908363ffffffff160217905550905085600260008363ffffffff1663ffffffff168152602001908152602001600020600001908051906020019061217c92919061226e565b5084600260008363ffffffff1663ffffffff16815260200190815260200160002060010190805190602001906121b392919061226e565b5083600260008363ffffffff1663ffffffff16815260200190815260200160002060030160006101000a81548173ffffffffffffffffffffffffffffffffffffffff021916908373ffffffffffffffffffffffffffffffffffffffff16021790555082600260008363ffffffff1663ffffffff168152602001908152602001600020600201908051906020019061224b92919061226e565b5080915050949350505050565b600060049054906101000a900463ffffffff1681565b82805461227a90612ca1565b90600052602060002090601f01602090048101928261229c57600085556122e3565b82601f106122b557805160ff19168380011785556122e3565b828001600101855582156122e3579182015b828111156122e25782518255916020019190600101906122c7565b5b5090506122f091906122f4565b5090565b5b8082111561230d5760008160009055506001016122f5565b5090565b6000604051905090565b600080fd5b600080fd5b600063ffffffff82169050919050565b61233e81612325565b811461234957600080fd5b50565b60008135905061235b81612335565b92915050565b6000819050919050565b61237481612361565b811461237f57600080fd5b50565b6000813590506123918161236b565b92915050565b600080604083850312156123ae576123ad61231b565b5b60006123bc8582860161234c565b92505060206123cd85828601612382565b9150509250929050565b6123e081612325565b82525050565b60006020820190506123fb60008301846123d7565b92915050565b60008060006060848603121561241a5761241961231b565b5b60006124288682870161234c565b93505060206124398682870161234c565b925050604061244a8682870161234c565b9150509250925092565b60008115159050919050565b61246981612454565b82525050565b60006020820190506124846000830184612460565b92915050565b6000602082840312156124a05761249f61231b565b5b60006124ae8482850161234c565b91505092915050565b600081519050919050565b600082825260208201905092915050565b60005b838110156124f15780820151818401526020810190506124d6565b83811115612500576000848401525b50505050565b6000601f19601f8301169050919050565b6000612522826124b7565b61252c81856124c2565b935061253c8185602086016124d3565b61254581612506565b840191505092915050565b600073ffffffffffffffffffffffffffffffffffffffff82169050919050565b600061257b82612550565b9050919050565b61258b81612570565b82525050565b600060608201905081810360008301526125ab8186612517565b90506125ba6020830185612582565b81810360408301526125cc8184612517565b9050949350505050565b600080fd5b600080fd5b7f4e487b7100000000000000000000000000000000000000000000000000000000600052604160045260246000fd5b61261882612506565b810181811067ffffffffffffffff82111715612637576126366125e0565b5b80604052505050565b600061264a612311565b9050612656828261260f565b919050565b600067ffffffffffffffff821115612676576126756125e0565b5b61267f82612506565b9050602081019050919050565b82818337600083830152505050565b60006126ae6126a98461265b565b612640565b9050828152602081018484840111156126ca576126c96125db565b5b6126d584828561268c565b509392505050565b600082601f8301126126f2576126f16125d6565b5b813561270284826020860161269b565b91505092915050565b600080600080600060a086880312156127275761272661231b565b5b60006127358882890161234c565b955050602086013567ffffffffffffffff81111561275657612755612320565b5b612762888289016126dd565b945050604086013567ffffffffffffffff81111561278357612782612320565b5b61278f888289016126dd565b935050606086013567ffffffffffffffff8111156127b0576127af612320565b5b6127bc888289016126dd565b92505060806127cd8882890161234c565b9150509295509295909350565b600080600080608085870312156127f4576127f361231b565b5b60006128028782880161234c565b945050602085013567ffffffffffffffff81111561282357612822612320565b5b61282f878288016126dd565b935050604085013567ffffffffffffffff8111156128505761284f612320565b5b61285c878288016126dd565b925050606085013567ffffffffffffffff81111561287d5761287c612320565b5b612889878288016126dd565b91505092959194509250565b600060808201905081810360008301526128af8187612517565b905081810360208301526128c38186612517565b905081810360408301526128d78185612517565b90506128e66060830184612582565b95945050505050565b600060808201905061290460008301876123d7565b61291160208301866123d7565b61291e60408301856123d7565b61292b6060830184612582565b95945050505050565b600060c082019050818103600083015261294e8189612517565b905081810360208301526129628188612517565b905081810360408301526129768187612517565b905061298560608301866123d7565b6129926080830185612582565b61299f60a08301846123d7565b979650505050505050565b600060c08201905081810360008301526129c48189612517565b905081810360208301526129d88188612517565b905081810360408301526129ec8187612517565b90506129fb6060830186612582565b612a0860808301856123d7565b612a1560a08301846123d7565b979650505050505050565b600081519050919050565b600082825260208201905092915050565b6000819050602082019050919050565b612a5581612325565b82525050565b6000612a678383612a4c565b60208301905092915050565b6000602082019050919050565b6000612a8b82612a20565b612a958185612a2b565b9350612aa083612a3c565b8060005b83811015612ad1578151612ab88882612a5b565b9750612ac383612a73565b925050600181019050612aa4565b5085935050505092915050565b60006020820190508181036000830152612af88184612a80565b905092915050565b6000608082019050612b1560008301876123d7565b612b2260208301866123d7565b612b2f6040830185612582565b612b3c60608301846123d7565b95945050505050565b612b4e81612570565b8114612b5957600080fd5b50565b600081359050612b6b81612b45565b92915050565b60008060008060808587031215612b8b57612b8a61231b565b5b600085013567ffffffffffffffff811115612ba957612ba8612320565b5b612bb5878288016126dd565b945050602085013567ffffffffffffffff811115612bd657612bd5612320565b5b612be2878288016126dd565b9350506040612bf387828801612b5c565b925050606085013567ffffffffffffffff811115612c1457612c13612320565b5b612c20878288016126dd565b91505092959194509250565b50565b6000612c3c6000836124c2565b9150612c4782612c2c565b600082019050919050565b60006020820190508181036000830152612c6b81612c2f565b9050919050565b7f4e487b7100000000000000000000000000000000000000000000000000000000600052602260045260246000fd5b60006002820490506001821680612cb957607f821691505b60208210811415612ccd57612ccc612c72565b5b50919050565b7f4e487b7100000000000000000000000000000000000000000000000000000000600052601160045260246000fd5b6000612d0d82612325565b915063ffffffff821415612d2457612d23612cd3565b5b600182019050919050565b600081905092915050565b6000612d45826124b7565b612d4f8185612d2f565b9350612d5f8185602086016124d3565b80840191505092915050565b6000612d778284612d3a565b915081905092915050565b60008190508160005260206000209050919050565b60008154612da481612ca1565b612dae8186612d2f565b94506001821660008114612dc95760018114612dda57612e0d565b60ff19831686528186019350612e0d565b612de385612d82565b60005b83811015612e0557815481890152600182019150602081019050612de6565b838801955050505b50505092915050565b6000612e228284612d97565b91508190509291505056fea26469706673582212203b9da387e25b29761e5a82df27a4dc4cd2cbee1fdc91fe184662ffe46c1b619f64736f6c634300080a0033",
  "immutableReferences": {},
  "source": "// SPDX-License-Identifier: MIT\npragma solidity >=0.4.22 <0.9.0;\n\ncontract supplyChain {\n    uint32 public product_id = 0;       // Product ID\n    uint32 public participant_id = 0;   // Participant ID\n    uint32 public owner_id = 0;         // Ownership ID\n\n    // A product object or group a product structure (collection of individual variables into one group)\n    struct product {\n        string modelNumber;\n        string partNumber;\n        string serialNumber;\n        address productOwner;\n        uint32 cost;\n        uint32 mfgTimeStamp;  // Manufacturer timestamp\n    }\n\n    // Mapping one product / element to another (list of products using the product_id as key)\n    mapping(uint32 => product) public products;\n\n    struct participant {\n        string userName;\n        string password;\n        string participantType;\n        address participantAddress;\n    }\n    mapping(uint32 => participant) public participants;\n\n    struct ownership {\n        uint32 productId;\n        uint32 ownerId;\n        uint32 trxTimeStamp; // transaction timestamp\n        address productOwner;\n    }\n    mapping(uint32 => ownership) public ownerships; // ownerships by ownership ID (owner_id)\n\n    mapping(uint32 => uint32[]) public productTrack;  // ownerships by Product ID (product_id) / Movement track for a product\n\n    // Every time we emit a transfer ownership event, it's going to be logged in the blockchain, and it's indexed\n    // You only index 3 parameters, but the data can be stored for free (lightweight log)\n    event TransferOwnership(uint32 indexed productId);\n\n    // 'memory' means data is not stored on the blockchain (only in local memory)\n    function addParticipant(string memory _name, string memory _pass, address _pAdd, string memory _pType) public returns (uint32){\n        uint32 userId = participant_id++;\n        participants[userId].userName = _name;\n        participants[userId].password = _pass;\n        participants[userId].participantAddress = _pAdd;\n        participants[userId].participantType = _pType;\n\n        return userId;\n    }\n\n    function getParticipant(uint32 _participant_id) public view returns (string memory, address, string memory) {\n        return (participants[_participant_id].userName,\n                participants[_participant_id].participantAddress,\n                participants[_participant_id].participantType);\n    }\n\n    function addProduct(uint32 _ownerId,\n                        string memory _modelNumber,\n                        string memory _partNumber,\n                        string memory _serialNumber,\n                        uint32 _productCost) public returns (uint32) {\n        // You could use a 'require()' too instead of 'if'\n        if(keccak256(abi.encodePacked(participants[_ownerId].participantType)) == keccak256(\"Manufacturer\")) { // compare hashes of the strings\n            uint32 productId = product_id++;\n\n            products[productId].modelNumber = _modelNumber;\n            products[productId].partNumber = _partNumber;\n            products[productId].serialNumber = _serialNumber;\n            products[productId].cost = _productCost;\n            products[productId].productOwner = participants[_ownerId].participantAddress;\n            products[productId].mfgTimeStamp = uint32(block.timestamp);\n\n            return productId;\n        }\n\n       return 0;\n    }\n\n    modifier onlyOwner(uint32 _productId) {\n         require(msg.sender == products[_productId].productOwner, \"\");\n         _;\n    }\n\n    function getProduct(uint32 _productId) public view returns (string memory,string memory,string memory,uint32,address,uint32){\n        return (products[_productId].modelNumber,\n                products[_productId].partNumber,\n                products[_productId].serialNumber,\n                products[_productId].cost,\n                products[_productId].productOwner,\n                products[_productId].mfgTimeStamp);\n    }\n\n    // Transfer the ownership of the product\n    function newOwner(uint32 _user1Id,uint32 _user2Id, uint32 _prodId) onlyOwner(_prodId) public returns (bool) {\n        participant memory p1 = participants[_user1Id];\n        participant memory p2 = participants[_user2Id];\n        uint32 ownership_id = owner_id++;\n\n        if(keccak256(abi.encodePacked(p1.participantType)) == keccak256(\"Manufacturer\")\n            && keccak256(abi.encodePacked(p2.participantType))==keccak256(\"Supplier\")){\n            ownerships[ownership_id].productId = _prodId;\n            ownerships[ownership_id].productOwner = p2.participantAddress;\n            ownerships[ownership_id].ownerId = _user2Id;\n            ownerships[ownership_id].trxTimeStamp = uint32(block.timestamp);\n            products[_prodId].productOwner = p2.participantAddress;\n            productTrack[_prodId].push(ownership_id);\n            emit TransferOwnership(_prodId);\n\n            return (true);\n        }\n        else if(keccak256(abi.encodePacked(p1.participantType)) == keccak256(\"Supplier\") && keccak256(abi.encodePacked(p2.participantType))==keccak256(\"Supplier\")){\n            ownerships[ownership_id].productId = _prodId;\n            ownerships[ownership_id].productOwner = p2.participantAddress;\n            ownerships[ownership_id].ownerId = _user2Id;\n            ownerships[ownership_id].trxTimeStamp = uint32(block.timestamp);\n            products[_prodId].productOwner = p2.participantAddress;\n            productTrack[_prodId].push(ownership_id);\n            emit TransferOwnership(_prodId);\n\n            return (true);\n        }\n        else if(keccak256(abi.encodePacked(p1.participantType)) == keccak256(\"Supplier\") && keccak256(abi.encodePacked(p2.participantType))==keccak256(\"Consumer\")){\n            ownerships[ownership_id].productId = _prodId;\n            ownerships[ownership_id].productOwner = p2.participantAddress;\n            ownerships[ownership_id].ownerId = _user2Id;\n            ownerships[ownership_id].trxTimeStamp = uint32(block.timestamp);\n            products[_prodId].productOwner = p2.participantAddress;\n            productTrack[_prodId].push(ownership_id);\n            emit TransferOwnership(_prodId);\n\n            return (true);\n        }\n\n        return (false);\n    }\n\n   function getProvenance(uint32 _prodId) external view returns (uint32[] memory) {\n       return productTrack[_prodId];\n    }\n\n    function getOwnership(uint32 _regId)  public view returns (uint32,uint32,address,uint32) {\n        ownership memory r = ownerships[_regId];\n        return (r.productId,r.ownerId,r.productOwner,r.trxTimeStamp);\n    }\n\n    function authenticateParticipant(uint32 _uid,\n                                    string memory _uname,\n                                    string memory _pass,\n                                    string memory _utype) public view returns (bool){\n        if(keccak256(abi.encodePacked(participants[_uid].participantType)) == keccak256(abi.encodePacked(_utype))) {\n            if(keccak256(abi.encodePacked(participants[_uid].userName)) == keccak256(abi.encodePacked(_uname))) {\n                if(keccak256(abi.encodePacked(participants[_uid].password)) == keccak256(abi.encodePacked(_pass))) {\n                    return (true);\n                }\n            }\n        }\n\n        return (false);\n    }\n}\n",
  "sourcePath": "/Users/sergio.gonzalez/workspace/ethereum-lab/SupplyChainApp/contracts/SupplyChain.sol",
  "compiler": {
    "name": "solc",
    "version": "0.8.10+commit.fc410830.Emscripten.clang"
  },
  "schemaVersion": "3.4.4",
  "updatedAt": "2022-04-14T07:58:38.910Z",
  "networkType": "ethereum",
  "devdoc": {
    "kind": "dev",
    "methods": {},
    "version": 1
  },
  "userdoc": {
    "kind": "user",
    "methods": {},
    "version": 1
  }
}