{
  "contractName": "supplyChain",
  "abi": [
    {
      "anonymous": false,
      "inputs": [
        {
          "indexed": true,
          "internalType": "uint32",
          "name": "participantId",
          "type": "uint32"
        }
      ],
      "name": "AddedParticipant",
      "type": "event"
    },
    {
      "anonymous": false,
      "inputs": [
        {
          "indexed": true,
          "internalType": "uint32",
          "name": "productId",
          "type": "uint32"
        }
      ],
      "name": "TransferOwnership",
      "type": "event"
    },
    {
      "inputs": [],
      "name": "owner_id",
      "outputs": [
        {
          "internalType": "uint32",
          "name": "",
          "type": "uint32"
        }
      ],
      "stateMutability": "view",
      "type": "function",
      "constant": true
    },
    {
      "inputs": [
        {
          "internalType": "uint32",
          "name": "",
          "type": "uint32"
        }
      ],
      "name": "ownerships",
      "outputs": [
        {
          "internalType": "uint32",
          "name": "productId",
          "type": "uint32"
        },
        {
          "internalType": "uint32",
          "name": "ownerId",
          "type": "uint32"
        },
        {
          "internalType": "uint32",
          "name": "trxTimeStamp",
          "type": "uint32"
        },
        {
          "internalType": "address",
          "name": "productOwner",
          "type": "address"
        }
      ],
      "stateMutability": "view",
      "type": "function",
      "constant": true
    },
    {
      "inputs": [],
      "name": "participant_id",
      "outputs": [
        {
          "internalType": "uint32",
          "name": "",
          "type": "uint32"
        }
      ],
      "stateMutability": "view",
      "type": "function",
      "constant": true
    },
    {
      "inputs": [
        {
          "internalType": "uint32",
          "name": "",
          "type": "uint32"
        }
      ],
      "name": "participants",
      "outputs": [
        {
          "internalType": "string",
          "name": "userName",
          "type": "string"
        },
        {
          "internalType": "string",
          "name": "password",
          "type": "string"
        },
        {
          "internalType": "string",
          "name": "participantType",
          "type": "string"
        },
        {
          "internalType": "address",
          "name": "participantAddress",
          "type": "address"
        }
      ],
      "stateMutability": "view",
      "type": "function",
      "constant": true
    },
    {
      "inputs": [
        {
          "internalType": "uint32",
          "name": "",
          "type": "uint32"
        },
        {
          "internalType": "uint256",
          "name": "",
          "type": "uint256"
        }
      ],
      "name": "productTrack",
      "outputs": [
        {
          "internalType": "uint32",
          "name": "",
          "type": "uint32"
        }
      ],
      "stateMutability": "view",
      "type": "function",
      "constant": true
    },
    {
      "inputs": [],
      "name": "product_id",
      "outputs": [
        {
          "internalType": "uint32",
          "name": "",
          "type": "uint32"
        }
      ],
      "stateMutability": "view",
      "type": "function",
      "constant": true
    },
    {
      "inputs": [
        {
          "internalType": "uint32",
          "name": "",
          "type": "uint32"
        }
      ],
      "name": "products",
      "outputs": [
        {
          "internalType": "string",
          "name": "modelNumber",
          "type": "string"
        },
        {
          "internalType": "string",
          "name": "partNumber",
          "type": "string"
        },
        {
          "internalType": "string",
          "name": "serialNumber",
          "type": "string"
        },
        {
          "internalType": "address",
          "name": "productOwner",
          "type": "address"
        },
        {
          "internalType": "uint32",
          "name": "cost",
          "type": "uint32"
        },
        {
          "internalType": "uint32",
          "name": "mfgTimeStamp",
          "type": "uint32"
        }
      ],
      "stateMutability": "view",
      "type": "function",
      "constant": true
    },
    {
      "inputs": [
        {
          "internalType": "string",
          "name": "_name",
          "type": "string"
        },
        {
          "internalType": "string",
          "name": "_pass",
          "type": "string"
        },
        {
          "internalType": "address",
          "name": "_pAdd",
          "type": "address"
        },
        {
          "internalType": "string",
          "name": "_pType",
          "type": "string"
        }
      ],
      "name": "addParticipant",
      "outputs": [
        {
          "internalType": "uint32",
          "name": "",
          "type": "uint32"
        }
      ],
      "stateMutability": "nonpayable",
      "type": "function"
    },
    {
      "inputs": [
        {
          "internalType": "uint32",
          "name": "_participant_id",
          "type": "uint32"
        }
      ],
      "name": "getParticipant",
      "outputs": [
        {
          "internalType": "string",
          "name": "",
          "type": "string"
        },
        {
          "internalType": "address",
          "name": "",
          "type": "address"
        },
        {
          "internalType": "string",
          "name": "",
          "type": "string"
        }
      ],
      "stateMutability": "view",
      "type": "function",
      "constant": true
    },
    {
      "inputs": [],
      "name": "getAllParticipants",
      "outputs": [
        {
          "components": [
            {
              "internalType": "string",
              "name": "userName",
              "type": "string"
            },
            {
              "internalType": "string",
              "name": "password",
              "type": "string"
            },
            {
              "internalType": "string",
              "name": "participantType",
              "type": "string"
            },
            {
              "internalType": "address",
              "name": "participantAddress",
              "type": "address"
            }
          ],
          "internalType": "struct supplyChain.participant[]",
          "name": "",
          "type": "tuple[]"
        }
      ],
      "stateMutability": "view",
      "type": "function",
      "constant": true
    },
    {
      "inputs": [],
      "name": "getAllParticipants1",
      "outputs": [
        {
          "internalType": "string[]",
          "name": "",
          "type": "string[]"
        },
        {
          "internalType": "address[]",
          "name": "",
          "type": "address[]"
        },
        {
          "internalType": "string[]",
          "name": "",
          "type": "string[]"
        }
      ],
      "stateMutability": "view",
      "type": "function",
      "constant": true
    },
    {
      "inputs": [
        {
          "internalType": "uint32",
          "name": "_ownerId",
          "type": "uint32"
        },
        {
          "internalType": "string",
          "name": "_modelNumber",
          "type": "string"
        },
        {
          "internalType": "string",
          "name": "_partNumber",
          "type": "string"
        },
        {
          "internalType": "string",
          "name": "_serialNumber",
          "type": "string"
        },
        {
          "internalType": "uint32",
          "name": "_productCost",
          "type": "uint32"
        }
      ],
      "name": "addProduct",
      "outputs": [
        {
          "internalType": "uint32",
          "name": "",
          "type": "uint32"
        }
      ],
      "stateMutability": "nonpayable",
      "type": "function"
    },
    {
      "inputs": [
        {
          "internalType": "uint32",
          "name": "_productId",
          "type": "uint32"
        }
      ],
      "name": "getProduct",
      "outputs": [
        {
          "internalType": "string",
          "name": "",
          "type": "string"
        },
        {
          "internalType": "string",
          "name": "",
          "type": "string"
        },
        {
          "internalType": "string",
          "name": "",
          "type": "string"
        },
        {
          "internalType": "uint32",
          "name": "",
          "type": "uint32"
        },
        {
          "internalType": "address",
          "name": "",
          "type": "address"
        },
        {
          "internalType": "uint32",
          "name": "",
          "type": "uint32"
        }
      ],
      "stateMutability": "view",
      "type": "function",
      "constant": true
    },
    {
      "inputs": [
        {
          "internalType": "uint32",
          "name": "_user1Id",
          "type": "uint32"
        },
        {
          "internalType": "uint32",
          "name": "_user2Id",
          "type": "uint32"
        },
        {
          "internalType": "uint32",
          "name": "_prodId",
          "type": "uint32"
        }
      ],
      "name": "newOwner",
      "outputs": [
        {
          "internalType": "bool",
          "name": "",
          "type": "bool"
        }
      ],
      "stateMutability": "nonpayable",
      "type": "function"
    },
    {
      "inputs": [
        {
          "internalType": "uint32",
          "name": "_prodId",
          "type": "uint32"
        }
      ],
      "name": "getProvenance",
      "outputs": [
        {
          "internalType": "uint32[]",
          "name": "",
          "type": "uint32[]"
        }
      ],
      "stateMutability": "view",
      "type": "function",
      "constant": true
    },
    {
      "inputs": [
        {
          "internalType": "uint32",
          "name": "_regId",
          "type": "uint32"
        }
      ],
      "name": "getOwnership",
      "outputs": [
        {
          "internalType": "uint32",
          "name": "",
          "type": "uint32"
        },
        {
          "internalType": "uint32",
          "name": "",
          "type": "uint32"
        },
        {
          "internalType": "address",
          "name": "",
          "type": "address"
        },
        {
          "internalType": "uint32",
          "name": "",
          "type": "uint32"
        }
      ],
      "stateMutability": "view",
      "type": "function",
      "constant": true
    },
    {
      "inputs": [
        {
          "internalType": "uint32",
          "name": "_uid",
          "type": "uint32"
        },
        {
          "internalType": "string",
          "name": "_uname",
          "type": "string"
        },
        {
          "internalType": "string",
          "name": "_pass",
          "type": "string"
        },
        {
          "internalType": "string",
          "name": "_utype",
          "type": "string"
        }
      ],
      "name": "authenticateParticipant",
      "outputs": [
        {
          "internalType": "bool",
          "name": "",
          "type": "bool"
        }
      ],
      "stateMutability": "view",
      "type": "function",
      "constant": true
    }
  ],
  "bytecode": "0x608060405260008060006101000a81548163ffffffff021916908363ffffffff16021790555060008060046101000a81548163ffffffff021916908363ffffffff16021790555060008060086101000a81548163ffffffff021916908363ffffffff16021790555034801561007357600080fd5b50613994806100836000396000f3fe608060405234801561001057600080fd5b506004361061010b5760003560e01c806381e15610116100a2578063c856956511610071578063c85695651461032e578063df6d23f11461035e578063eab0a47914610391578063ebf43a7e146103af578063fc2da910146103df5761010b565b806381e15610146102735780638f5ebf71146102a6578063a638ac49146102c4578063bf712fd6146102f95761010b565b80633b26a65d116100de5780633b26a65d146101ae57806350632104146101e0578063721b5743146102105780637d0a9ac9146102405761010b565b8063195ec9ee146101105780631a0748021461012e57806321602d031461015e5780632e9d52841461017e575b600080fd5b6101186103fd565b6040516101259190612cb5565b60405180910390f35b61014860048036038101906101439190612d5d565b610712565b6040516101559190612dac565b60405180910390f35b61016661075b565b60405161017593929190612f38565b60405180910390f35b61019860048036038101906101939190612f84565b610b18565b6040516101a59190612ff2565b60405180910390f35b6101c860048036038101906101c3919061300d565b61192c565b6040516101d793929190613093565b60405180910390f35b6101fa60048036038101906101f5919061320d565b611ade565b6040516102079190612dac565b60405180910390f35b61022a600480360381019061022591906132dc565b611d73565b6040516102379190612ff2565b60405180910390f35b61025a6004803603810190610255919061300d565b611eec565b60405161026a9493929190613397565b60405180910390f35b61028d6004803603810190610288919061300d565b6120d4565b60405161029d94939291906133f1565b60405180910390f35b6102ae612154565b6040516102bb9190612dac565b60405180910390f35b6102de60048036038101906102d9919061300d565b61216a565b6040516102f096959493929190613436565b60405180910390f35b610313600480360381019061030e919061300d565b61243c565b604051610325969594939291906134ac565b60405180910390f35b6103486004803603810190610343919061300d565b612650565b60405161035591906135e0565b60405180910390f35b6103786004803603810190610373919061300d565b6126f3565b6040516103889493929190613602565b60405180910390f35b610399612813565b6040516103a69190612dac565b60405180910390f35b6103c960048036038101906103c49190613673565b612827565b6040516103d69190612dac565b60405180910390f35b6103e76129b1565b6040516103f49190612dac565b60405180910390f35b606060008060049054906101000a900463ffffffff1663ffffffff1667ffffffffffffffff811115610432576104316130e2565b5b60405190808252806020026020018201604052801561046b57816020015b6104586129c7565b8152602001906001900390816104505790505b50905060005b600060049054906101000a900463ffffffff1663ffffffff168163ffffffff16101561070a576000600260008363ffffffff1663ffffffff1681526020019081526020016000209050806040518060800160405290816000820180546104d69061375d565b80601f01602080910402602001604051908101604052809291908181526020018280546105029061375d565b801561054f5780601f106105245761010080835404028352916020019161054f565b820191906000526020600020905b81548152906001019060200180831161053257829003601f168201915b505050505081526020016001820180546105689061375d565b80601f01602080910402602001604051908101604052809291908181526020018280546105949061375d565b80156105e15780601f106105b6576101008083540402835291602001916105e1565b820191906000526020600020905b8154815290600101906020018083116105c457829003601f168201915b505050505081526020016002820180546105fa9061375d565b80601f01602080910402602001604051908101604052809291908181526020018280546106269061375d565b80156106735780601f1061064857610100808354040283529160200191610673565b820191906000526020600020905b81548152906001019060200180831161065657829003601f168201915b505050505081526020016003820160009054906101000a900473ffffffffffffffffffffffffffffffffffffffff1673ffffffffffffffffffffffffffffffffffffffff1673ffffffffffffffffffffffffffffffffffffffff1681525050838363ffffffff16815181106106eb576106ea61378f565b5b6020026020010181905250508080610702906137ed565b915050610471565b508091505090565b6004602052816000526040600020818154811061072e57600080fd5b9060005260206000209060089182820401919006600402915091509054906101000a900463ffffffff1681565b606080606060008060049054906101000a900463ffffffff1663ffffffff1667ffffffffffffffff811115610793576107926130e2565b5b6040519080825280602002602001820160405280156107c657816020015b60608152602001906001900390816107b15790505b50905060008060049054906101000a900463ffffffff1663ffffffff1667ffffffffffffffff8111156107fc576107fb6130e2565b5b60405190808252806020026020018201604052801561082a5781602001602082028036833780820191505090505b50905060008060049054906101000a900463ffffffff1663ffffffff1667ffffffffffffffff8111156108605761085f6130e2565b5b60405190808252806020026020018201604052801561089357816020015b606081526020019060019003908161087e5790505b50905060005b600060049054906101000a900463ffffffff1663ffffffff168163ffffffff161015610b0657600260008263ffffffff1663ffffffff16815260200190815260200160002060000180546108ec9061375d565b80601f01602080910402602001604051908101604052809291908181526020018280546109189061375d565b80156109655780601f1061093a57610100808354040283529160200191610965565b820191906000526020600020905b81548152906001019060200180831161094857829003601f168201915b5050505050848263ffffffff16815181106109835761098261378f565b5b6020026020010181905250600260008263ffffffff1663ffffffff16815260200190815260200160002060030160009054906101000a900473ffffffffffffffffffffffffffffffffffffffff16838263ffffffff16815181106109ea576109e961378f565b5b602002602001019073ffffffffffffffffffffffffffffffffffffffff16908173ffffffffffffffffffffffffffffffffffffffff1681525050600260008263ffffffff1663ffffffff1681526020019081526020016000206002018054610a519061375d565b80601f0160208091040260200160405190810160405280929190818152602001828054610a7d9061375d565b8015610aca5780601f10610a9f57610100808354040283529160200191610aca565b820191906000526020600020905b815481529060010190602001808311610aad57829003601f168201915b5050505050828263ffffffff1681518110610ae857610ae761378f565b5b60200260200101819052508080610afe906137ed565b915050610899565b50828282955095509550505050909192565b600081600160008263ffffffff1663ffffffff16815260200190815260200160002060030160009054906101000a900473ffffffffffffffffffffffffffffffffffffffff1673ffffffffffffffffffffffffffffffffffffffff163373ffffffffffffffffffffffffffffffffffffffff1614610bcb576040517f08c379a0000000000000000000000000000000000000000000000000000000008152600401610bc290613840565b60405180910390fd5b6000600260008763ffffffff1663ffffffff168152602001908152602001600020604051806080016040529081600082018054610c079061375d565b80601f0160208091040260200160405190810160405280929190818152602001828054610c339061375d565b8015610c805780601f10610c5557610100808354040283529160200191610c80565b820191906000526020600020905b815481529060010190602001808311610c6357829003601f168201915b50505050508152602001600182018054610c999061375d565b80601f0160208091040260200160405190810160405280929190818152602001828054610cc59061375d565b8015610d125780601f10610ce757610100808354040283529160200191610d12565b820191906000526020600020905b815481529060010190602001808311610cf557829003601f168201915b50505050508152602001600282018054610d2b9061375d565b80601f0160208091040260200160405190810160405280929190818152602001828054610d579061375d565b8015610da45780601f10610d7957610100808354040283529160200191610da4565b820191906000526020600020905b815481529060010190602001808311610d8757829003601f168201915b505050505081526020016003820160009054906101000a900473ffffffffffffffffffffffffffffffffffffffff1673ffffffffffffffffffffffffffffffffffffffff1673ffffffffffffffffffffffffffffffffffffffff168152505090506000600260008763ffffffff1663ffffffff168152602001908152602001600020604051806080016040529081600082018054610e419061375d565b80601f0160208091040260200160405190810160405280929190818152602001828054610e6d9061375d565b8015610eba5780601f10610e8f57610100808354040283529160200191610eba565b820191906000526020600020905b815481529060010190602001808311610e9d57829003601f168201915b50505050508152602001600182018054610ed39061375d565b80601f0160208091040260200160405190810160405280929190818152602001828054610eff9061375d565b8015610f4c5780601f10610f2157610100808354040283529160200191610f4c565b820191906000526020600020905b815481529060010190602001808311610f2f57829003601f168201915b50505050508152602001600282018054610f659061375d565b80601f0160208091040260200160405190810160405280929190818152602001828054610f919061375d565b8015610fde5780601f10610fb357610100808354040283529160200191610fde565b820191906000526020600020905b815481529060010190602001808311610fc157829003601f168201915b505050505081526020016003820160009054906101000a900473ffffffffffffffffffffffffffffffffffffffff1673ffffffffffffffffffffffffffffffffffffffff1673ffffffffffffffffffffffffffffffffffffffff16815250509050600080600881819054906101000a900463ffffffff1680929190611062906137ed565b91906101000a81548163ffffffff021916908363ffffffff16021790555090507fcec9b8e63c868f2f7f30368f1583e7aa39ae80e163d57a859fa5a90244b28ac183604001516040516020016110b8919061389c565b6040516020818303038152906040528051906020012014801561112457507fb77c7d6bf62fa24fc205955093030c58325cd2d3d35fb486ede7594fb99635f5826040015160405160200161110c919061389c565b60405160208183030381529060405280519060200120145b156113605785600360008363ffffffff1663ffffffff16815260200190815260200160002060000160006101000a81548163ffffffff021916908363ffffffff1602179055508160600151600360008363ffffffff1663ffffffff168152602001908152602001600020600001600c6101000a81548173ffffffffffffffffffffffffffffffffffffffff021916908373ffffffffffffffffffffffffffffffffffffffff16021790555086600360008363ffffffff1663ffffffff16815260200190815260200160002060000160046101000a81548163ffffffff021916908363ffffffff16021790555042600360008363ffffffff1663ffffffff16815260200190815260200160002060000160086101000a81548163ffffffff021916908363ffffffff1602179055508160600151600160008863ffffffff1663ffffffff16815260200190815260200160002060030160006101000a81548173ffffffffffffffffffffffffffffffffffffffff021916908373ffffffffffffffffffffffffffffffffffffffff160217905550600460008763ffffffff1663ffffffff1681526020019081526020016000208190806001815401808255809150506001900390600052602060002090600891828204019190066004029091909190916101000a81548163ffffffff021916908363ffffffff1602179055508563ffffffff167fa5470ac012c6e9dc500e62b1d3de0de58db49b3ab7cfebbfb126d9abd854199b60405160405180910390a260019450505050611924565b7fb77c7d6bf62fa24fc205955093030c58325cd2d3d35fb486ede7594fb99635f58360400151604051602001611396919061389c565b6040516020818303038152906040528051906020012014801561140257507fb77c7d6bf62fa24fc205955093030c58325cd2d3d35fb486ede7594fb99635f582604001516040516020016113ea919061389c565b60405160208183030381529060405280519060200120145b1561163e5785600360008363ffffffff1663ffffffff16815260200190815260200160002060000160006101000a81548163ffffffff021916908363ffffffff1602179055508160600151600360008363ffffffff1663ffffffff168152602001908152602001600020600001600c6101000a81548173ffffffffffffffffffffffffffffffffffffffff021916908373ffffffffffffffffffffffffffffffffffffffff16021790555086600360008363ffffffff1663ffffffff16815260200190815260200160002060000160046101000a81548163ffffffff021916908363ffffffff16021790555042600360008363ffffffff1663ffffffff16815260200190815260200160002060000160086101000a81548163ffffffff021916908363ffffffff1602179055508160600151600160008863ffffffff1663ffffffff16815260200190815260200160002060030160006101000a81548173ffffffffffffffffffffffffffffffffffffffff021916908373ffffffffffffffffffffffffffffffffffffffff160217905550600460008763ffffffff1663ffffffff1681526020019081526020016000208190806001815401808255809150506001900390600052602060002090600891828204019190066004029091909190916101000a81548163ffffffff021916908363ffffffff1602179055508563ffffffff167fa5470ac012c6e9dc500e62b1d3de0de58db49b3ab7cfebbfb126d9abd854199b60405160405180910390a260019450505050611924565b7fb77c7d6bf62fa24fc205955093030c58325cd2d3d35fb486ede7594fb99635f58360400151604051602001611674919061389c565b604051602081830303815290604052805190602001201480156116e057507fc0878b4b16a78e8085cba0ca02fc0924f1492924058d153153a3f286e0fd70ff82604001516040516020016116c8919061389c565b60405160208183030381529060405280519060200120145b1561191c5785600360008363ffffffff1663ffffffff16815260200190815260200160002060000160006101000a81548163ffffffff021916908363ffffffff1602179055508160600151600360008363ffffffff1663ffffffff168152602001908152602001600020600001600c6101000a81548173ffffffffffffffffffffffffffffffffffffffff021916908373ffffffffffffffffffffffffffffffffffffffff16021790555086600360008363ffffffff1663ffffffff16815260200190815260200160002060000160046101000a81548163ffffffff021916908363ffffffff16021790555042600360008363ffffffff1663ffffffff16815260200190815260200160002060000160086101000a81548163ffffffff021916908363ffffffff1602179055508160600151600160008863ffffffff1663ffffffff16815260200190815260200160002060030160006101000a81548173ffffffffffffffffffffffffffffffffffffffff021916908373ffffffffffffffffffffffffffffffffffffffff160217905550600460008763ffffffff1663ffffffff1681526020019081526020016000208190806001815401808255809150506001900390600052602060002090600891828204019190066004029091909190916101000a81548163ffffffff021916908363ffffffff1602179055508563ffffffff167fa5470ac012c6e9dc500e62b1d3de0de58db49b3ab7cfebbfb126d9abd854199b60405160405180910390a260019450505050611924565b600094505050505b509392505050565b606060006060600260008563ffffffff1663ffffffff168152602001908152602001600020600001600260008663ffffffff1663ffffffff16815260200190815260200160002060030160009054906101000a900473ffffffffffffffffffffffffffffffffffffffff16600260008763ffffffff1663ffffffff1681526020019081526020016000206002018280546119c59061375d565b80601f01602080910402602001604051908101604052809291908181526020018280546119f19061375d565b8015611a3e5780601f10611a1357610100808354040283529160200191611a3e565b820191906000526020600020905b815481529060010190602001808311611a2157829003601f168201915b50505050509250808054611a519061375d565b80601f0160208091040260200160405190810160405280929190818152602001828054611a7d9061375d565b8015611aca5780601f10611a9f57610100808354040283529160200191611aca565b820191906000526020600020905b815481529060010190602001808311611aad57829003601f168201915b505050505090509250925092509193909250565b60007fcec9b8e63c868f2f7f30368f1583e7aa39ae80e163d57a859fa5a90244b28ac1600260008863ffffffff1663ffffffff168152602001908152602001600020600201604051602001611b339190613947565b604051602081830303815290604052805190602001201415611d6557600080600081819054906101000a900463ffffffff1680929190611b72906137ed565b91906101000a81548163ffffffff021916908363ffffffff160217905550905085600160008363ffffffff1663ffffffff1681526020019081526020016000206000019080519060200190611bc8929190612a05565b5084600160008363ffffffff1663ffffffff1681526020019081526020016000206001019080519060200190611bff929190612a05565b5083600160008363ffffffff1663ffffffff1681526020019081526020016000206002019080519060200190611c36929190612a05565b5082600160008363ffffffff1663ffffffff16815260200190815260200160002060030160146101000a81548163ffffffff021916908363ffffffff160217905550600260008863ffffffff1663ffffffff16815260200190815260200160002060030160009054906101000a900473ffffffffffffffffffffffffffffffffffffffff16600160008363ffffffff1663ffffffff16815260200190815260200160002060030160006101000a81548173ffffffffffffffffffffffffffffffffffffffff021916908373ffffffffffffffffffffffffffffffffffffffff16021790555042600160008363ffffffff1663ffffffff16815260200190815260200160002060030160186101000a81548163ffffffff021916908363ffffffff16021790555080915050611d6a565b600090505b95945050505050565b600081604051602001611d86919061389c565b60405160208183030381529060405280519060200120600260008763ffffffff1663ffffffff168152602001908152602001600020600201604051602001611dce9190613947565b604051602081830303815290604052805190602001201415611edf5783604051602001611dfb919061389c565b60405160208183030381529060405280519060200120600260008763ffffffff1663ffffffff168152602001908152602001600020600001604051602001611e439190613947565b604051602081830303815290604052805190602001201415611ede5782604051602001611e70919061389c565b60405160208183030381529060405280519060200120600260008763ffffffff1663ffffffff168152602001908152602001600020600101604051602001611eb89190613947565b604051602081830303815290604052805190602001201415611edd5760019050611ee4565b5b5b600090505b949350505050565b6002602052806000526040600020600091509050806000018054611f0f9061375d565b80601f0160208091040260200160405190810160405280929190818152602001828054611f3b9061375d565b8015611f885780601f10611f5d57610100808354040283529160200191611f88565b820191906000526020600020905b815481529060010190602001808311611f6b57829003601f168201915b505050505090806001018054611f9d9061375d565b80601f0160208091040260200160405190810160405280929190818152602001828054611fc99061375d565b80156120165780601f10611feb57610100808354040283529160200191612016565b820191906000526020600020905b815481529060010190602001808311611ff957829003601f168201915b50505050509080600201805461202b9061375d565b80601f01602080910402602001604051908101604052809291908181526020018280546120579061375d565b80156120a45780601f10612079576101008083540402835291602001916120a4565b820191906000526020600020905b81548152906001019060200180831161208757829003601f168201915b5050505050908060030160009054906101000a900473ffffffffffffffffffffffffffffffffffffffff16905084565b60036020528060005260406000206000915090508060000160009054906101000a900463ffffffff16908060000160049054906101000a900463ffffffff16908060000160089054906101000a900463ffffffff169080600001600c9054906101000a900473ffffffffffffffffffffffffffffffffffffffff16905084565b600060089054906101000a900463ffffffff1681565b60608060606000806000600160008863ffffffff1663ffffffff168152602001908152602001600020600001600160008963ffffffff1663ffffffff168152602001908152602001600020600101600160008a63ffffffff1663ffffffff168152602001908152602001600020600201600160008b63ffffffff1663ffffffff16815260200190815260200160002060030160149054906101000a900463ffffffff16600160008c63ffffffff1663ffffffff16815260200190815260200160002060030160009054906101000a900473ffffffffffffffffffffffffffffffffffffffff16600160008d63ffffffff1663ffffffff16815260200190815260200160002060030160189054906101000a900463ffffffff1685805461228f9061375d565b80601f01602080910402602001604051908101604052809291908181526020018280546122bb9061375d565b80156123085780601f106122dd57610100808354040283529160200191612308565b820191906000526020600020905b8154815290600101906020018083116122eb57829003601f168201915b5050505050955084805461231b9061375d565b80601f01602080910402602001604051908101604052809291908181526020018280546123479061375d565b80156123945780601f1061236957610100808354040283529160200191612394565b820191906000526020600020905b81548152906001019060200180831161237757829003601f168201915b505050505094508380546123a79061375d565b80601f01602080910402602001604051908101604052809291908181526020018280546123d39061375d565b80156124205780601f106123f557610100808354040283529160200191612420565b820191906000526020600020905b81548152906001019060200180831161240357829003601f168201915b5050505050935095509550955095509550955091939550919395565b600160205280600052604060002060009150905080600001805461245f9061375d565b80601f016020809104026020016040519081016040528092919081815260200182805461248b9061375d565b80156124d85780601f106124ad576101008083540402835291602001916124d8565b820191906000526020600020905b8154815290600101906020018083116124bb57829003601f168201915b5050505050908060010180546124ed9061375d565b80601f01602080910402602001604051908101604052809291908181526020018280546125199061375d565b80156125665780601f1061253b57610100808354040283529160200191612566565b820191906000526020600020905b81548152906001019060200180831161254957829003601f168201915b50505050509080600201805461257b9061375d565b80601f01602080910402602001604051908101604052809291908181526020018280546125a79061375d565b80156125f45780601f106125c9576101008083540402835291602001916125f4565b820191906000526020600020905b8154815290600101906020018083116125d757829003601f168201915b5050505050908060030160009054906101000a900473ffffffffffffffffffffffffffffffffffffffff16908060030160149054906101000a900463ffffffff16908060030160189054906101000a900463ffffffff16905086565b6060600460008363ffffffff1663ffffffff1681526020019081526020016000208054806020026020016040519081016040528092919081815260200182805480156126e757602002820191906000526020600020906000905b82829054906101000a900463ffffffff1663ffffffff16815260200190600401906020826003010492830192600103820291508084116126aa5790505b50505050509050919050565b6000806000806000600360008763ffffffff1663ffffffff1681526020019081526020016000206040518060800160405290816000820160009054906101000a900463ffffffff1663ffffffff1663ffffffff1681526020016000820160049054906101000a900463ffffffff1663ffffffff1663ffffffff1681526020016000820160089054906101000a900463ffffffff1663ffffffff1663ffffffff16815260200160008201600c9054906101000a900473ffffffffffffffffffffffffffffffffffffffff1673ffffffffffffffffffffffffffffffffffffffff1673ffffffffffffffffffffffffffffffffffffffff1681525050905080600001518160200151826060015183604001519450945094509450509193509193565b60008054906101000a900463ffffffff1681565b6000806000600481819054906101000a900463ffffffff168092919061284c906137ed565b91906101000a81548163ffffffff021916908363ffffffff160217905550905085600260008363ffffffff1663ffffffff16815260200190815260200160002060000190805190602001906128a2929190612a05565b5084600260008363ffffffff1663ffffffff16815260200190815260200160002060010190805190602001906128d9929190612a05565b5083600260008363ffffffff1663ffffffff16815260200190815260200160002060030160006101000a81548173ffffffffffffffffffffffffffffffffffffffff021916908373ffffffffffffffffffffffffffffffffffffffff16021790555082600260008363ffffffff1663ffffffff1681526020019081526020016000206002019080519060200190612971929190612a05565b508063ffffffff167fded240eca54b4e3f1452163bcab331b90df452f10e8fca0b69682db31179370f60405160405180910390a280915050949350505050565b600060049054906101000a900463ffffffff1681565b6040518060800160405280606081526020016060815260200160608152602001600073ffffffffffffffffffffffffffffffffffffffff1681525090565b828054612a119061375d565b90600052602060002090601f016020900481019282612a335760008555612a7a565b82601f10612a4c57805160ff1916838001178555612a7a565b82800160010185558215612a7a579182015b82811115612a79578251825591602001919060010190612a5e565b5b509050612a879190612a8b565b5090565b5b80821115612aa4576000816000905550600101612a8c565b5090565b600081519050919050565b600082825260208201905092915050565b6000819050602082019050919050565b600081519050919050565b600082825260208201905092915050565b60005b83811015612b0e578082015181840152602081019050612af3565b83811115612b1d576000848401525b50505050565b6000601f19601f8301169050919050565b6000612b3f82612ad4565b612b498185612adf565b9350612b59818560208601612af0565b612b6281612b23565b840191505092915050565b600073ffffffffffffffffffffffffffffffffffffffff82169050919050565b6000612b9882612b6d565b9050919050565b612ba881612b8d565b82525050565b60006080830160008301518482036000860152612bcb8282612b34565b91505060208301518482036020860152612be58282612b34565b91505060408301518482036040860152612bff8282612b34565b9150506060830151612c146060860182612b9f565b508091505092915050565b6000612c2b8383612bae565b905092915050565b6000602082019050919050565b6000612c4b82612aa8565b612c558185612ab3565b935083602082028501612c6785612ac4565b8060005b85811015612ca35784840389528151612c848582612c1f565b9450612c8f83612c33565b925060208a01995050600181019050612c6b565b50829750879550505050505092915050565b60006020820190508181036000830152612ccf8184612c40565b905092915050565b6000604051905090565b600080fd5b600080fd5b600063ffffffff82169050919050565b612d0481612ceb565b8114612d0f57600080fd5b50565b600081359050612d2181612cfb565b92915050565b6000819050919050565b612d3a81612d27565b8114612d4557600080fd5b50565b600081359050612d5781612d31565b92915050565b60008060408385031215612d7457612d73612ce1565b5b6000612d8285828601612d12565b9250506020612d9385828601612d48565b9150509250929050565b612da681612ceb565b82525050565b6000602082019050612dc16000830184612d9d565b92915050565b600081519050919050565b600082825260208201905092915050565b6000819050602082019050919050565b6000612dff8383612b34565b905092915050565b6000602082019050919050565b6000612e1f82612dc7565b612e298185612dd2565b935083602082028501612e3b85612de3565b8060005b85811015612e775784840389528151612e588582612df3565b9450612e6383612e07565b925060208a01995050600181019050612e3f565b50829750879550505050505092915050565b600081519050919050565b600082825260208201905092915050565b6000819050602082019050919050565b6000612ec18383612b9f565b60208301905092915050565b6000602082019050919050565b6000612ee582612e89565b612eef8185612e94565b9350612efa83612ea5565b8060005b83811015612f2b578151612f128882612eb5565b9750612f1d83612ecd565b925050600181019050612efe565b5085935050505092915050565b60006060820190508181036000830152612f528186612e14565b90508181036020830152612f668185612eda565b90508181036040830152612f7a8184612e14565b9050949350505050565b600080600060608486031215612f9d57612f9c612ce1565b5b6000612fab86828701612d12565b9350506020612fbc86828701612d12565b9250506040612fcd86828701612d12565b9150509250925092565b60008115159050919050565b612fec81612fd7565b82525050565b60006020820190506130076000830184612fe3565b92915050565b60006020828403121561302357613022612ce1565b5b600061303184828501612d12565b91505092915050565b600082825260208201905092915050565b600061305682612ad4565b613060818561303a565b9350613070818560208601612af0565b61307981612b23565b840191505092915050565b61308d81612b8d565b82525050565b600060608201905081810360008301526130ad818661304b565b90506130bc6020830185613084565b81810360408301526130ce818461304b565b9050949350505050565b600080fd5b600080fd5b7f4e487b7100000000000000000000000000000000000000000000000000000000600052604160045260246000fd5b61311a82612b23565b810181811067ffffffffffffffff82111715613139576131386130e2565b5b80604052505050565b600061314c612cd7565b90506131588282613111565b919050565b600067ffffffffffffffff821115613178576131776130e2565b5b61318182612b23565b9050602081019050919050565b82818337600083830152505050565b60006131b06131ab8461315d565b613142565b9050828152602081018484840111156131cc576131cb6130dd565b5b6131d784828561318e565b509392505050565b600082601f8301126131f4576131f36130d8565b5b813561320484826020860161319d565b91505092915050565b600080600080600060a0868803121561322957613228612ce1565b5b600061323788828901612d12565b955050602086013567ffffffffffffffff81111561325857613257612ce6565b5b613264888289016131df565b945050604086013567ffffffffffffffff81111561328557613284612ce6565b5b613291888289016131df565b935050606086013567ffffffffffffffff8111156132b2576132b1612ce6565b5b6132be888289016131df565b92505060806132cf88828901612d12565b9150509295509295909350565b600080600080608085870312156132f6576132f5612ce1565b5b600061330487828801612d12565b945050602085013567ffffffffffffffff81111561332557613324612ce6565b5b613331878288016131df565b935050604085013567ffffffffffffffff81111561335257613351612ce6565b5b61335e878288016131df565b925050606085013567ffffffffffffffff81111561337f5761337e612ce6565b5b61338b878288016131df565b91505092959194509250565b600060808201905081810360008301526133b1818761304b565b905081810360208301526133c5818661304b565b905081810360408301526133d9818561304b565b90506133e86060830184613084565b95945050505050565b60006080820190506134066000830187612d9d565b6134136020830186612d9d565b6134206040830185612d9d565b61342d6060830184613084565b95945050505050565b600060c0820190508181036000830152613450818961304b565b90508181036020830152613464818861304b565b90508181036040830152613478818761304b565b90506134876060830186612d9d565b6134946080830185613084565b6134a160a0830184612d9d565b979650505050505050565b600060c08201905081810360008301526134c6818961304b565b905081810360208301526134da818861304b565b905081810360408301526134ee818761304b565b90506134fd6060830186613084565b61350a6080830185612d9d565b61351760a0830184612d9d565b979650505050505050565b600081519050919050565b600082825260208201905092915050565b6000819050602082019050919050565b61355781612ceb565b82525050565b6000613569838361354e565b60208301905092915050565b6000602082019050919050565b600061358d82613522565b613597818561352d565b93506135a28361353e565b8060005b838110156135d35781516135ba888261355d565b97506135c583613575565b9250506001810190506135a6565b5085935050505092915050565b600060208201905081810360008301526135fa8184613582565b905092915050565b60006080820190506136176000830187612d9d565b6136246020830186612d9d565b6136316040830185613084565b61363e6060830184612d9d565b95945050505050565b61365081612b8d565b811461365b57600080fd5b50565b60008135905061366d81613647565b92915050565b6000806000806080858703121561368d5761368c612ce1565b5b600085013567ffffffffffffffff8111156136ab576136aa612ce6565b5b6136b7878288016131df565b945050602085013567ffffffffffffffff8111156136d8576136d7612ce6565b5b6136e4878288016131df565b93505060406136f58782880161365e565b925050606085013567ffffffffffffffff81111561371657613715612ce6565b5b613722878288016131df565b91505092959194509250565b7f4e487b7100000000000000000000000000000000000000000000000000000000600052602260045260246000fd5b6000600282049050600182168061377557607f821691505b602082108114156137895761378861372e565b5b50919050565b7f4e487b7100000000000000000000000000000000000000000000000000000000600052603260045260246000fd5b7f4e487b7100000000000000000000000000000000000000000000000000000000600052601160045260246000fd5b60006137f882612ceb565b915063ffffffff82141561380f5761380e6137be565b5b600182019050919050565b50565b600061382a60008361303a565b91506138358261381a565b600082019050919050565b600060208201905081810360008301526138598161381d565b9050919050565b600081905092915050565b600061387682612ad4565b6138808185613860565b9350613890818560208601612af0565b80840191505092915050565b60006138a8828461386b565b915081905092915050565b60008190508160005260206000209050919050565b600081546138d58161375d565b6138df8186613860565b945060018216600081146138fa576001811461390b5761393e565b60ff1983168652818601935061393e565b613914856138b3565b60005b8381101561393657815481890152600182019150602081019050613917565b838801955050505b50505092915050565b600061395382846138c8565b91508190509291505056fea2646970667358221220c0d8180269cff94fbdf35bef453f1fd3499048a6e4952000d184e644b219001e64736f6c634300080a0033",
  "immutableReferences": {},
  "source": "// SPDX-License-Identifier: MIT\npragma solidity >=0.4.22 <0.9.0;\n\ncontract supplyChain {\n    uint32 public product_id = 0;       // Product ID\n    uint32 public participant_id = 0;   // Participant ID\n    uint32 public owner_id = 0;         // Ownership ID\n\n    // A product object or group a product structure (collection of individual variables into one group)\n    struct product {\n        string modelNumber;\n        string partNumber;\n        string serialNumber;\n        address productOwner;\n        uint32 cost;\n        uint32 mfgTimeStamp;  // Manufacturer timestamp\n    }\n\n    // Mapping one product / element to another (list of products using the product_id as key)\n    mapping(uint32 => product) public products;\n\n    struct participant {\n        string userName;\n        string password;\n        string participantType;\n        address participantAddress;\n    }\n    mapping(uint32 => participant) public participants;\n    event AddedParticipant(uint32 indexed participantId);\n\n    struct ownership {\n        uint32 productId;\n        uint32 ownerId;\n        uint32 trxTimeStamp; // transaction timestamp\n        address productOwner;\n    }\n    mapping(uint32 => ownership) public ownerships; // ownerships by ownership ID (owner_id)\n\n    mapping(uint32 => uint32[]) public productTrack;  // ownerships by Product ID (product_id) / Movement track for a product\n\n    // Every time we emit a transfer ownership event, it's going to be logged in the blockchain, and it's indexed\n    // You only index 3 parameters, but the data can be stored for free (lightweight log)\n    event TransferOwnership(uint32 indexed productId);\n\n    // 'memory' means data is not stored on the blockchain (only in local memory)\n    function addParticipant(string memory _name, string memory _pass, address _pAdd, string memory _pType) public returns (uint32){\n        uint32 userId = participant_id++;\n        participants[userId].userName = _name;\n        participants[userId].password = _pass;\n        participants[userId].participantAddress = _pAdd;\n        participants[userId].participantType = _pType;\n\n        emit AddedParticipant(userId);\n\n        return userId;\n    }\n\n    function getParticipant(uint32 _participant_id) public view returns (string memory, address, string memory) {\n        return (participants[_participant_id].userName,\n                participants[_participant_id].participantAddress,\n                participants[_participant_id].participantType);\n    }\n\n    function getAllParticipants() public view returns (participant[] memory) {\n        participant[] memory allParticipants = new participant[](participant_id);\n\n        for (uint32 index = 0; index < participant_id; index ++) {\n            participant storage newParticipant = participants[index];\n            allParticipants[index] = newParticipant;\n        }\n\n        return allParticipants;\n    }\n\n    function getAllParticipants1() public view returns (string[] memory, address[] memory, string[] memory) {\n        string[] memory userName = new string[](participant_id);\n        address[] memory participantAddress = new address[](participant_id);\n        string[] memory participantType = new string[](participant_id);\n\n        for (uint32 index = 0; index < participant_id; index ++) {\n            userName[index] = participants[index].userName;\n            participantAddress[index] = participants[index].participantAddress;\n            participantType[index] = participants[index].participantType;\n        }\n\n        return (userName, participantAddress, participantType);\n    }\n\n    function addProduct(uint32 _ownerId,\n                        string memory _modelNumber,\n                        string memory _partNumber,\n                        string memory _serialNumber,\n                        uint32 _productCost) public returns (uint32) {\n        // You could use a 'require()' too instead of 'if'\n        if(keccak256(abi.encodePacked(participants[_ownerId].participantType)) == keccak256(\"Manufacturer\")) { // compare hashes of the strings\n            uint32 productId = product_id++;\n\n            products[productId].modelNumber = _modelNumber;\n            products[productId].partNumber = _partNumber;\n            products[productId].serialNumber = _serialNumber;\n            products[productId].cost = _productCost;\n            products[productId].productOwner = participants[_ownerId].participantAddress;\n            products[productId].mfgTimeStamp = uint32(block.timestamp);\n\n            return productId;\n        }\n\n       return 0;\n    }\n\n    modifier onlyOwner(uint32 _productId) {\n         require(msg.sender == products[_productId].productOwner, \"\");\n         _;\n    }\n\n    function getProduct(uint32 _productId) public view returns (string memory,string memory,string memory,uint32,address,uint32){\n        return (products[_productId].modelNumber,\n                products[_productId].partNumber,\n                products[_productId].serialNumber,\n                products[_productId].cost,\n                products[_productId].productOwner,\n                products[_productId].mfgTimeStamp);\n    }\n\n    // Transfer the ownership of the product\n    function newOwner(uint32 _user1Id,uint32 _user2Id, uint32 _prodId) onlyOwner(_prodId) public returns (bool) {\n        participant memory p1 = participants[_user1Id];\n        participant memory p2 = participants[_user2Id];\n        uint32 ownership_id = owner_id++;\n\n        if(keccak256(abi.encodePacked(p1.participantType)) == keccak256(\"Manufacturer\")\n            && keccak256(abi.encodePacked(p2.participantType))==keccak256(\"Supplier\")){\n            ownerships[ownership_id].productId = _prodId;\n            ownerships[ownership_id].productOwner = p2.participantAddress;\n            ownerships[ownership_id].ownerId = _user2Id;\n            ownerships[ownership_id].trxTimeStamp = uint32(block.timestamp);\n            products[_prodId].productOwner = p2.participantAddress;\n            productTrack[_prodId].push(ownership_id);\n            emit TransferOwnership(_prodId);\n\n            return (true);\n        }\n        else if(keccak256(abi.encodePacked(p1.participantType)) == keccak256(\"Supplier\") && keccak256(abi.encodePacked(p2.participantType))==keccak256(\"Supplier\")){\n            ownerships[ownership_id].productId = _prodId;\n            ownerships[ownership_id].productOwner = p2.participantAddress;\n            ownerships[ownership_id].ownerId = _user2Id;\n            ownerships[ownership_id].trxTimeStamp = uint32(block.timestamp);\n            products[_prodId].productOwner = p2.participantAddress;\n            productTrack[_prodId].push(ownership_id);\n            emit TransferOwnership(_prodId);\n\n            return (true);\n        }\n        else if(keccak256(abi.encodePacked(p1.participantType)) == keccak256(\"Supplier\") && keccak256(abi.encodePacked(p2.participantType))==keccak256(\"Consumer\")){\n            ownerships[ownership_id].productId = _prodId;\n            ownerships[ownership_id].productOwner = p2.participantAddress;\n            ownerships[ownership_id].ownerId = _user2Id;\n            ownerships[ownership_id].trxTimeStamp = uint32(block.timestamp);\n            products[_prodId].productOwner = p2.participantAddress;\n            productTrack[_prodId].push(ownership_id);\n            emit TransferOwnership(_prodId);\n\n            return (true);\n        }\n\n        return (false);\n    }\n\n   function getProvenance(uint32 _prodId) external view returns (uint32[] memory) {\n       return productTrack[_prodId];\n    }\n\n    function getOwnership(uint32 _regId)  public view returns (uint32,uint32,address,uint32) {\n        ownership memory r = ownerships[_regId];\n        return (r.productId,r.ownerId,r.productOwner,r.trxTimeStamp);\n    }\n\n    function authenticateParticipant(uint32 _uid,\n                                    string memory _uname,\n                                    string memory _pass,\n                                    string memory _utype) public view returns (bool){\n        if(keccak256(abi.encodePacked(participants[_uid].participantType)) == keccak256(abi.encodePacked(_utype))) {\n            if(keccak256(abi.encodePacked(participants[_uid].userName)) == keccak256(abi.encodePacked(_uname))) {\n                if(keccak256(abi.encodePacked(participants[_uid].password)) == keccak256(abi.encodePacked(_pass))) {\n                    return (true);\n                }\n            }\n        }\n\n        return (false);\n    }\n}\n",
  "sourcePath": "/Users/sergio.gonzalez/workspace/ethereum-lab/SupplyChainApp/contracts/SupplyChain.sol",
  "compiler": {
    "name": "solc",
    "version": "0.8.10+commit.fc410830.Emscripten.clang"
  },
  "schemaVersion": "3.4.4",
  "updatedAt": "2022-04-23T15:56:14.153Z",
  "networkType": "ethereum",
  "devdoc": {
    "kind": "dev",
    "methods": {},
    "version": 1
  },
  "userdoc": {
    "kind": "user",
    "methods": {},
    "version": 1
  }
}