{
  "contractName": "supplyChain",
  "abi": [
    {
      "anonymous": false,
      "inputs": [
        {
          "indexed": true,
          "internalType": "uint32",
          "name": "participantId",
          "type": "uint32"
        }
      ],
      "name": "AddedParticipant",
      "type": "event"
    },
    {
      "anonymous": false,
      "inputs": [
        {
          "indexed": true,
          "internalType": "uint32",
          "name": "productId",
          "type": "uint32"
        }
      ],
      "name": "TransferOwnership",
      "type": "event"
    },
    {
      "inputs": [],
      "name": "owner_id",
      "outputs": [
        {
          "internalType": "uint32",
          "name": "",
          "type": "uint32"
        }
      ],
      "stateMutability": "view",
      "type": "function",
      "constant": true
    },
    {
      "inputs": [
        {
          "internalType": "uint32",
          "name": "",
          "type": "uint32"
        }
      ],
      "name": "ownerships",
      "outputs": [
        {
          "internalType": "uint32",
          "name": "productId",
          "type": "uint32"
        },
        {
          "internalType": "uint32",
          "name": "ownerId",
          "type": "uint32"
        },
        {
          "internalType": "uint32",
          "name": "trxTimeStamp",
          "type": "uint32"
        },
        {
          "internalType": "address",
          "name": "productOwner",
          "type": "address"
        }
      ],
      "stateMutability": "view",
      "type": "function",
      "constant": true
    },
    {
      "inputs": [],
      "name": "participant_id",
      "outputs": [
        {
          "internalType": "uint32",
          "name": "",
          "type": "uint32"
        }
      ],
      "stateMutability": "view",
      "type": "function",
      "constant": true
    },
    {
      "inputs": [
        {
          "internalType": "uint32",
          "name": "",
          "type": "uint32"
        }
      ],
      "name": "participants",
      "outputs": [
        {
          "internalType": "string",
          "name": "userName",
          "type": "string"
        },
        {
          "internalType": "string",
          "name": "password",
          "type": "string"
        },
        {
          "internalType": "string",
          "name": "participantType",
          "type": "string"
        },
        {
          "internalType": "address",
          "name": "participantAddress",
          "type": "address"
        }
      ],
      "stateMutability": "view",
      "type": "function",
      "constant": true
    },
    {
      "inputs": [
        {
          "internalType": "uint32",
          "name": "",
          "type": "uint32"
        },
        {
          "internalType": "uint256",
          "name": "",
          "type": "uint256"
        }
      ],
      "name": "productTrack",
      "outputs": [
        {
          "internalType": "uint32",
          "name": "",
          "type": "uint32"
        }
      ],
      "stateMutability": "view",
      "type": "function",
      "constant": true
    },
    {
      "inputs": [],
      "name": "product_id",
      "outputs": [
        {
          "internalType": "uint32",
          "name": "",
          "type": "uint32"
        }
      ],
      "stateMutability": "view",
      "type": "function",
      "constant": true
    },
    {
      "inputs": [
        {
          "internalType": "uint32",
          "name": "",
          "type": "uint32"
        }
      ],
      "name": "products",
      "outputs": [
        {
          "internalType": "string",
          "name": "modelNumber",
          "type": "string"
        },
        {
          "internalType": "string",
          "name": "partNumber",
          "type": "string"
        },
        {
          "internalType": "string",
          "name": "serialNumber",
          "type": "string"
        },
        {
          "internalType": "address",
          "name": "productOwner",
          "type": "address"
        },
        {
          "internalType": "uint32",
          "name": "cost",
          "type": "uint32"
        },
        {
          "internalType": "uint32",
          "name": "mfgTimeStamp",
          "type": "uint32"
        }
      ],
      "stateMutability": "view",
      "type": "function",
      "constant": true
    },
    {
      "inputs": [
        {
          "internalType": "string",
          "name": "_name",
          "type": "string"
        },
        {
          "internalType": "string",
          "name": "_pass",
          "type": "string"
        },
        {
          "internalType": "address",
          "name": "_pAdd",
          "type": "address"
        },
        {
          "internalType": "string",
          "name": "_pType",
          "type": "string"
        }
      ],
      "name": "addParticipant",
      "outputs": [
        {
          "internalType": "uint32",
          "name": "",
          "type": "uint32"
        }
      ],
      "stateMutability": "nonpayable",
      "type": "function"
    },
    {
      "inputs": [
        {
          "internalType": "uint32",
          "name": "_participant_id",
          "type": "uint32"
        }
      ],
      "name": "getParticipant",
      "outputs": [
        {
          "internalType": "string",
          "name": "",
          "type": "string"
        },
        {
          "internalType": "address",
          "name": "",
          "type": "address"
        },
        {
          "internalType": "string",
          "name": "",
          "type": "string"
        }
      ],
      "stateMutability": "view",
      "type": "function",
      "constant": true
    },
    {
      "inputs": [],
      "name": "getAllParticipants",
      "outputs": [
        {
          "components": [
            {
              "internalType": "string",
              "name": "userName",
              "type": "string"
            },
            {
              "internalType": "string",
              "name": "password",
              "type": "string"
            },
            {
              "internalType": "string",
              "name": "participantType",
              "type": "string"
            },
            {
              "internalType": "address",
              "name": "participantAddress",
              "type": "address"
            }
          ],
          "internalType": "struct supplyChain.participant[]",
          "name": "",
          "type": "tuple[]"
        }
      ],
      "stateMutability": "view",
      "type": "function",
      "constant": true
    },
    {
      "inputs": [
        {
          "internalType": "uint32",
          "name": "_ownerId",
          "type": "uint32"
        },
        {
          "internalType": "string",
          "name": "_modelNumber",
          "type": "string"
        },
        {
          "internalType": "string",
          "name": "_partNumber",
          "type": "string"
        },
        {
          "internalType": "string",
          "name": "_serialNumber",
          "type": "string"
        },
        {
          "internalType": "uint32",
          "name": "_productCost",
          "type": "uint32"
        }
      ],
      "name": "addProduct",
      "outputs": [
        {
          "internalType": "uint32",
          "name": "",
          "type": "uint32"
        }
      ],
      "stateMutability": "nonpayable",
      "type": "function"
    },
    {
      "inputs": [
        {
          "internalType": "uint32",
          "name": "_productId",
          "type": "uint32"
        }
      ],
      "name": "getProduct",
      "outputs": [
        {
          "internalType": "string",
          "name": "",
          "type": "string"
        },
        {
          "internalType": "string",
          "name": "",
          "type": "string"
        },
        {
          "internalType": "string",
          "name": "",
          "type": "string"
        },
        {
          "internalType": "uint32",
          "name": "",
          "type": "uint32"
        },
        {
          "internalType": "address",
          "name": "",
          "type": "address"
        },
        {
          "internalType": "uint32",
          "name": "",
          "type": "uint32"
        }
      ],
      "stateMutability": "view",
      "type": "function",
      "constant": true
    },
    {
      "inputs": [
        {
          "internalType": "uint32",
          "name": "_user1Id",
          "type": "uint32"
        },
        {
          "internalType": "uint32",
          "name": "_user2Id",
          "type": "uint32"
        },
        {
          "internalType": "uint32",
          "name": "_prodId",
          "type": "uint32"
        }
      ],
      "name": "newOwner",
      "outputs": [
        {
          "internalType": "bool",
          "name": "",
          "type": "bool"
        }
      ],
      "stateMutability": "nonpayable",
      "type": "function"
    },
    {
      "inputs": [
        {
          "internalType": "uint32",
          "name": "_prodId",
          "type": "uint32"
        }
      ],
      "name": "getProvenance",
      "outputs": [
        {
          "internalType": "uint32[]",
          "name": "",
          "type": "uint32[]"
        }
      ],
      "stateMutability": "view",
      "type": "function",
      "constant": true
    },
    {
      "inputs": [
        {
          "internalType": "uint32",
          "name": "_regId",
          "type": "uint32"
        }
      ],
      "name": "getOwnership",
      "outputs": [
        {
          "internalType": "uint32",
          "name": "",
          "type": "uint32"
        },
        {
          "internalType": "uint32",
          "name": "",
          "type": "uint32"
        },
        {
          "internalType": "address",
          "name": "",
          "type": "address"
        },
        {
          "internalType": "uint32",
          "name": "",
          "type": "uint32"
        }
      ],
      "stateMutability": "view",
      "type": "function",
      "constant": true
    },
    {
      "inputs": [
        {
          "internalType": "uint32",
          "name": "_uid",
          "type": "uint32"
        },
        {
          "internalType": "string",
          "name": "_uname",
          "type": "string"
        },
        {
          "internalType": "string",
          "name": "_pass",
          "type": "string"
        },
        {
          "internalType": "string",
          "name": "_utype",
          "type": "string"
        }
      ],
      "name": "authenticateParticipant",
      "outputs": [
        {
          "internalType": "bool",
          "name": "",
          "type": "bool"
        }
      ],
      "stateMutability": "view",
      "type": "function",
      "constant": true
    }
  ],
  "bytecode": "0x608060405260008060006101000a81548163ffffffff021916908363ffffffff16021790555060008060046101000a81548163ffffffff021916908363ffffffff16021790555060008060086101000a81548163ffffffff021916908363ffffffff16021790555034801561007357600080fd5b506133ef806100836000396000f3fe608060405234801561001057600080fd5b50600436106101005760003560e01c80638f5ebf7111610097578063df6d23f111610066578063df6d23f114610333578063eab0a47914610366578063ebf43a7e14610384578063fc2da910146103b457610100565b80638f5ebf711461027b578063a638ac4914610299578063bf712fd6146102ce578063c85695651461030357610100565b806350632104116100d357806350632104146101b5578063721b5743146101e55780637d0a9ac91461021557806381e156101461024857610100565b8063195ec9ee146101055780631a074802146101235780632e9d5284146101535780633b26a65d14610183575b600080fd5b61010d6103d2565b60405161011a91906128cd565b60405180910390f35b61013d60048036038101906101389190612975565b6106e7565b60405161014a91906129c4565b60405180910390f35b61016d600480360381019061016891906129df565b610730565b60405161017a9190612a4d565b60405180910390f35b61019d60048036038101906101989190612a68565b611544565b6040516101ac93929190612aee565b60405180910390f35b6101cf60048036038101906101ca9190612c68565b6116f6565b6040516101dc91906129c4565b60405180910390f35b6101ff60048036038101906101fa9190612d37565b61198b565b60405161020c9190612a4d565b60405180910390f35b61022f600480360381019061022a9190612a68565b611b04565b60405161023f9493929190612df2565b60405180910390f35b610262600480360381019061025d9190612a68565b611cec565b6040516102729493929190612e4c565b60405180910390f35b610283611d6c565b60405161029091906129c4565b60405180910390f35b6102b360048036038101906102ae9190612a68565b611d82565b6040516102c596959493929190612e91565b60405180910390f35b6102e860048036038101906102e39190612a68565b612054565b6040516102fa96959493929190612f07565b60405180910390f35b61031d60048036038101906103189190612a68565b612268565b60405161032a919061303b565b60405180910390f35b61034d60048036038101906103489190612a68565b61230b565b60405161035d949392919061305d565b60405180910390f35b61036e61242b565b60405161037b91906129c4565b60405180910390f35b61039e600480360381019061039991906130ce565b61243f565b6040516103ab91906129c4565b60405180910390f35b6103bc6125c9565b6040516103c991906129c4565b60405180910390f35b606060008060049054906101000a900463ffffffff1663ffffffff1667ffffffffffffffff81111561040757610406612b3d565b5b60405190808252806020026020018201604052801561044057816020015b61042d6125df565b8152602001906001900390816104255790505b50905060005b600060049054906101000a900463ffffffff1663ffffffff168163ffffffff1610156106df576000600260008363ffffffff1663ffffffff1681526020019081526020016000209050806040518060800160405290816000820180546104ab906131b8565b80601f01602080910402602001604051908101604052809291908181526020018280546104d7906131b8565b80156105245780601f106104f957610100808354040283529160200191610524565b820191906000526020600020905b81548152906001019060200180831161050757829003601f168201915b5050505050815260200160018201805461053d906131b8565b80601f0160208091040260200160405190810160405280929190818152602001828054610569906131b8565b80156105b65780601f1061058b576101008083540402835291602001916105b6565b820191906000526020600020905b81548152906001019060200180831161059957829003601f168201915b505050505081526020016002820180546105cf906131b8565b80601f01602080910402602001604051908101604052809291908181526020018280546105fb906131b8565b80156106485780601f1061061d57610100808354040283529160200191610648565b820191906000526020600020905b81548152906001019060200180831161062b57829003601f168201915b505050505081526020016003820160009054906101000a900473ffffffffffffffffffffffffffffffffffffffff1673ffffffffffffffffffffffffffffffffffffffff1673ffffffffffffffffffffffffffffffffffffffff1681525050838363ffffffff16815181106106c0576106bf6131ea565b5b60200260200101819052505080806106d790613248565b915050610446565b508091505090565b6004602052816000526040600020818154811061070357600080fd5b9060005260206000209060089182820401919006600402915091509054906101000a900463ffffffff1681565b600081600160008263ffffffff1663ffffffff16815260200190815260200160002060030160009054906101000a900473ffffffffffffffffffffffffffffffffffffffff1673ffffffffffffffffffffffffffffffffffffffff163373ffffffffffffffffffffffffffffffffffffffff16146107e3576040517f08c379a00000000000000000000000000000000000000000000000000000000081526004016107da9061329b565b60405180910390fd5b6000600260008763ffffffff1663ffffffff16815260200190815260200160002060405180608001604052908160008201805461081f906131b8565b80601f016020809104026020016040519081016040528092919081815260200182805461084b906131b8565b80156108985780601f1061086d57610100808354040283529160200191610898565b820191906000526020600020905b81548152906001019060200180831161087b57829003601f168201915b505050505081526020016001820180546108b1906131b8565b80601f01602080910402602001604051908101604052809291908181526020018280546108dd906131b8565b801561092a5780601f106108ff5761010080835404028352916020019161092a565b820191906000526020600020905b81548152906001019060200180831161090d57829003601f168201915b50505050508152602001600282018054610943906131b8565b80601f016020809104026020016040519081016040528092919081815260200182805461096f906131b8565b80156109bc5780601f10610991576101008083540402835291602001916109bc565b820191906000526020600020905b81548152906001019060200180831161099f57829003601f168201915b505050505081526020016003820160009054906101000a900473ffffffffffffffffffffffffffffffffffffffff1673ffffffffffffffffffffffffffffffffffffffff1673ffffffffffffffffffffffffffffffffffffffff168152505090506000600260008763ffffffff1663ffffffff168152602001908152602001600020604051806080016040529081600082018054610a59906131b8565b80601f0160208091040260200160405190810160405280929190818152602001828054610a85906131b8565b8015610ad25780601f10610aa757610100808354040283529160200191610ad2565b820191906000526020600020905b815481529060010190602001808311610ab557829003601f168201915b50505050508152602001600182018054610aeb906131b8565b80601f0160208091040260200160405190810160405280929190818152602001828054610b17906131b8565b8015610b645780601f10610b3957610100808354040283529160200191610b64565b820191906000526020600020905b815481529060010190602001808311610b4757829003601f168201915b50505050508152602001600282018054610b7d906131b8565b80601f0160208091040260200160405190810160405280929190818152602001828054610ba9906131b8565b8015610bf65780601f10610bcb57610100808354040283529160200191610bf6565b820191906000526020600020905b815481529060010190602001808311610bd957829003601f168201915b505050505081526020016003820160009054906101000a900473ffffffffffffffffffffffffffffffffffffffff1673ffffffffffffffffffffffffffffffffffffffff1673ffffffffffffffffffffffffffffffffffffffff16815250509050600080600881819054906101000a900463ffffffff1680929190610c7a90613248565b91906101000a81548163ffffffff021916908363ffffffff16021790555090507fcec9b8e63c868f2f7f30368f1583e7aa39ae80e163d57a859fa5a90244b28ac18360400151604051602001610cd091906132f7565b60405160208183030381529060405280519060200120148015610d3c57507fb77c7d6bf62fa24fc205955093030c58325cd2d3d35fb486ede7594fb99635f58260400151604051602001610d2491906132f7565b60405160208183030381529060405280519060200120145b15610f785785600360008363ffffffff1663ffffffff16815260200190815260200160002060000160006101000a81548163ffffffff021916908363ffffffff1602179055508160600151600360008363ffffffff1663ffffffff168152602001908152602001600020600001600c6101000a81548173ffffffffffffffffffffffffffffffffffffffff021916908373ffffffffffffffffffffffffffffffffffffffff16021790555086600360008363ffffffff1663ffffffff16815260200190815260200160002060000160046101000a81548163ffffffff021916908363ffffffff16021790555042600360008363ffffffff1663ffffffff16815260200190815260200160002060000160086101000a81548163ffffffff021916908363ffffffff1602179055508160600151600160008863ffffffff1663ffffffff16815260200190815260200160002060030160006101000a81548173ffffffffffffffffffffffffffffffffffffffff021916908373ffffffffffffffffffffffffffffffffffffffff160217905550600460008763ffffffff1663ffffffff1681526020019081526020016000208190806001815401808255809150506001900390600052602060002090600891828204019190066004029091909190916101000a81548163ffffffff021916908363ffffffff1602179055508563ffffffff167fa5470ac012c6e9dc500e62b1d3de0de58db49b3ab7cfebbfb126d9abd854199b60405160405180910390a26001945050505061153c565b7fb77c7d6bf62fa24fc205955093030c58325cd2d3d35fb486ede7594fb99635f58360400151604051602001610fae91906132f7565b6040516020818303038152906040528051906020012014801561101a57507fb77c7d6bf62fa24fc205955093030c58325cd2d3d35fb486ede7594fb99635f5826040015160405160200161100291906132f7565b60405160208183030381529060405280519060200120145b156112565785600360008363ffffffff1663ffffffff16815260200190815260200160002060000160006101000a81548163ffffffff021916908363ffffffff1602179055508160600151600360008363ffffffff1663ffffffff168152602001908152602001600020600001600c6101000a81548173ffffffffffffffffffffffffffffffffffffffff021916908373ffffffffffffffffffffffffffffffffffffffff16021790555086600360008363ffffffff1663ffffffff16815260200190815260200160002060000160046101000a81548163ffffffff021916908363ffffffff16021790555042600360008363ffffffff1663ffffffff16815260200190815260200160002060000160086101000a81548163ffffffff021916908363ffffffff1602179055508160600151600160008863ffffffff1663ffffffff16815260200190815260200160002060030160006101000a81548173ffffffffffffffffffffffffffffffffffffffff021916908373ffffffffffffffffffffffffffffffffffffffff160217905550600460008763ffffffff1663ffffffff1681526020019081526020016000208190806001815401808255809150506001900390600052602060002090600891828204019190066004029091909190916101000a81548163ffffffff021916908363ffffffff1602179055508563ffffffff167fa5470ac012c6e9dc500e62b1d3de0de58db49b3ab7cfebbfb126d9abd854199b60405160405180910390a26001945050505061153c565b7fb77c7d6bf62fa24fc205955093030c58325cd2d3d35fb486ede7594fb99635f5836040015160405160200161128c91906132f7565b604051602081830303815290604052805190602001201480156112f857507fc0878b4b16a78e8085cba0ca02fc0924f1492924058d153153a3f286e0fd70ff82604001516040516020016112e091906132f7565b60405160208183030381529060405280519060200120145b156115345785600360008363ffffffff1663ffffffff16815260200190815260200160002060000160006101000a81548163ffffffff021916908363ffffffff1602179055508160600151600360008363ffffffff1663ffffffff168152602001908152602001600020600001600c6101000a81548173ffffffffffffffffffffffffffffffffffffffff021916908373ffffffffffffffffffffffffffffffffffffffff16021790555086600360008363ffffffff1663ffffffff16815260200190815260200160002060000160046101000a81548163ffffffff021916908363ffffffff16021790555042600360008363ffffffff1663ffffffff16815260200190815260200160002060000160086101000a81548163ffffffff021916908363ffffffff1602179055508160600151600160008863ffffffff1663ffffffff16815260200190815260200160002060030160006101000a81548173ffffffffffffffffffffffffffffffffffffffff021916908373ffffffffffffffffffffffffffffffffffffffff160217905550600460008763ffffffff1663ffffffff1681526020019081526020016000208190806001815401808255809150506001900390600052602060002090600891828204019190066004029091909190916101000a81548163ffffffff021916908363ffffffff1602179055508563ffffffff167fa5470ac012c6e9dc500e62b1d3de0de58db49b3ab7cfebbfb126d9abd854199b60405160405180910390a26001945050505061153c565b600094505050505b509392505050565b606060006060600260008563ffffffff1663ffffffff168152602001908152602001600020600001600260008663ffffffff1663ffffffff16815260200190815260200160002060030160009054906101000a900473ffffffffffffffffffffffffffffffffffffffff16600260008763ffffffff1663ffffffff1681526020019081526020016000206002018280546115dd906131b8565b80601f0160208091040260200160405190810160405280929190818152602001828054611609906131b8565b80156116565780601f1061162b57610100808354040283529160200191611656565b820191906000526020600020905b81548152906001019060200180831161163957829003601f168201915b50505050509250808054611669906131b8565b80601f0160208091040260200160405190810160405280929190818152602001828054611695906131b8565b80156116e25780601f106116b7576101008083540402835291602001916116e2565b820191906000526020600020905b8154815290600101906020018083116116c557829003601f168201915b505050505090509250925092509193909250565b60007fcec9b8e63c868f2f7f30368f1583e7aa39ae80e163d57a859fa5a90244b28ac1600260008863ffffffff1663ffffffff16815260200190815260200160002060020160405160200161174b91906133a2565b60405160208183030381529060405280519060200120141561197d57600080600081819054906101000a900463ffffffff168092919061178a90613248565b91906101000a81548163ffffffff021916908363ffffffff160217905550905085600160008363ffffffff1663ffffffff16815260200190815260200160002060000190805190602001906117e092919061261d565b5084600160008363ffffffff1663ffffffff168152602001908152602001600020600101908051906020019061181792919061261d565b5083600160008363ffffffff1663ffffffff168152602001908152602001600020600201908051906020019061184e92919061261d565b5082600160008363ffffffff1663ffffffff16815260200190815260200160002060030160146101000a81548163ffffffff021916908363ffffffff160217905550600260008863ffffffff1663ffffffff16815260200190815260200160002060030160009054906101000a900473ffffffffffffffffffffffffffffffffffffffff16600160008363ffffffff1663ffffffff16815260200190815260200160002060030160006101000a81548173ffffffffffffffffffffffffffffffffffffffff021916908373ffffffffffffffffffffffffffffffffffffffff16021790555042600160008363ffffffff1663ffffffff16815260200190815260200160002060030160186101000a81548163ffffffff021916908363ffffffff16021790555080915050611982565b600090505b95945050505050565b60008160405160200161199e91906132f7565b60405160208183030381529060405280519060200120600260008763ffffffff1663ffffffff1681526020019081526020016000206002016040516020016119e691906133a2565b604051602081830303815290604052805190602001201415611af75783604051602001611a1391906132f7565b60405160208183030381529060405280519060200120600260008763ffffffff1663ffffffff168152602001908152602001600020600001604051602001611a5b91906133a2565b604051602081830303815290604052805190602001201415611af65782604051602001611a8891906132f7565b60405160208183030381529060405280519060200120600260008763ffffffff1663ffffffff168152602001908152602001600020600101604051602001611ad091906133a2565b604051602081830303815290604052805190602001201415611af55760019050611afc565b5b5b600090505b949350505050565b6002602052806000526040600020600091509050806000018054611b27906131b8565b80601f0160208091040260200160405190810160405280929190818152602001828054611b53906131b8565b8015611ba05780601f10611b7557610100808354040283529160200191611ba0565b820191906000526020600020905b815481529060010190602001808311611b8357829003601f168201915b505050505090806001018054611bb5906131b8565b80601f0160208091040260200160405190810160405280929190818152602001828054611be1906131b8565b8015611c2e5780601f10611c0357610100808354040283529160200191611c2e565b820191906000526020600020905b815481529060010190602001808311611c1157829003601f168201915b505050505090806002018054611c43906131b8565b80601f0160208091040260200160405190810160405280929190818152602001828054611c6f906131b8565b8015611cbc5780601f10611c9157610100808354040283529160200191611cbc565b820191906000526020600020905b815481529060010190602001808311611c9f57829003601f168201915b5050505050908060030160009054906101000a900473ffffffffffffffffffffffffffffffffffffffff16905084565b60036020528060005260406000206000915090508060000160009054906101000a900463ffffffff16908060000160049054906101000a900463ffffffff16908060000160089054906101000a900463ffffffff169080600001600c9054906101000a900473ffffffffffffffffffffffffffffffffffffffff16905084565b600060089054906101000a900463ffffffff1681565b60608060606000806000600160008863ffffffff1663ffffffff168152602001908152602001600020600001600160008963ffffffff1663ffffffff168152602001908152602001600020600101600160008a63ffffffff1663ffffffff168152602001908152602001600020600201600160008b63ffffffff1663ffffffff16815260200190815260200160002060030160149054906101000a900463ffffffff16600160008c63ffffffff1663ffffffff16815260200190815260200160002060030160009054906101000a900473ffffffffffffffffffffffffffffffffffffffff16600160008d63ffffffff1663ffffffff16815260200190815260200160002060030160189054906101000a900463ffffffff16858054611ea7906131b8565b80601f0160208091040260200160405190810160405280929190818152602001828054611ed3906131b8565b8015611f205780601f10611ef557610100808354040283529160200191611f20565b820191906000526020600020905b815481529060010190602001808311611f0357829003601f168201915b50505050509550848054611f33906131b8565b80601f0160208091040260200160405190810160405280929190818152602001828054611f5f906131b8565b8015611fac5780601f10611f8157610100808354040283529160200191611fac565b820191906000526020600020905b815481529060010190602001808311611f8f57829003601f168201915b50505050509450838054611fbf906131b8565b80601f0160208091040260200160405190810160405280929190818152602001828054611feb906131b8565b80156120385780601f1061200d57610100808354040283529160200191612038565b820191906000526020600020905b81548152906001019060200180831161201b57829003601f168201915b5050505050935095509550955095509550955091939550919395565b6001602052806000526040600020600091509050806000018054612077906131b8565b80601f01602080910402602001604051908101604052809291908181526020018280546120a3906131b8565b80156120f05780601f106120c5576101008083540402835291602001916120f0565b820191906000526020600020905b8154815290600101906020018083116120d357829003601f168201915b505050505090806001018054612105906131b8565b80601f0160208091040260200160405190810160405280929190818152602001828054612131906131b8565b801561217e5780601f106121535761010080835404028352916020019161217e565b820191906000526020600020905b81548152906001019060200180831161216157829003601f168201915b505050505090806002018054612193906131b8565b80601f01602080910402602001604051908101604052809291908181526020018280546121bf906131b8565b801561220c5780601f106121e15761010080835404028352916020019161220c565b820191906000526020600020905b8154815290600101906020018083116121ef57829003601f168201915b5050505050908060030160009054906101000a900473ffffffffffffffffffffffffffffffffffffffff16908060030160149054906101000a900463ffffffff16908060030160189054906101000a900463ffffffff16905086565b6060600460008363ffffffff1663ffffffff1681526020019081526020016000208054806020026020016040519081016040528092919081815260200182805480156122ff57602002820191906000526020600020906000905b82829054906101000a900463ffffffff1663ffffffff16815260200190600401906020826003010492830192600103820291508084116122c25790505b50505050509050919050565b6000806000806000600360008763ffffffff1663ffffffff1681526020019081526020016000206040518060800160405290816000820160009054906101000a900463ffffffff1663ffffffff1663ffffffff1681526020016000820160049054906101000a900463ffffffff1663ffffffff1663ffffffff1681526020016000820160089054906101000a900463ffffffff1663ffffffff1663ffffffff16815260200160008201600c9054906101000a900473ffffffffffffffffffffffffffffffffffffffff1673ffffffffffffffffffffffffffffffffffffffff1673ffffffffffffffffffffffffffffffffffffffff1681525050905080600001518160200151826060015183604001519450945094509450509193509193565b60008054906101000a900463ffffffff1681565b6000806000600481819054906101000a900463ffffffff168092919061246490613248565b91906101000a81548163ffffffff021916908363ffffffff160217905550905085600260008363ffffffff1663ffffffff16815260200190815260200160002060000190805190602001906124ba92919061261d565b5084600260008363ffffffff1663ffffffff16815260200190815260200160002060010190805190602001906124f192919061261d565b5083600260008363ffffffff1663ffffffff16815260200190815260200160002060030160006101000a81548173ffffffffffffffffffffffffffffffffffffffff021916908373ffffffffffffffffffffffffffffffffffffffff16021790555082600260008363ffffffff1663ffffffff168152602001908152602001600020600201908051906020019061258992919061261d565b508063ffffffff167fded240eca54b4e3f1452163bcab331b90df452f10e8fca0b69682db31179370f60405160405180910390a280915050949350505050565b600060049054906101000a900463ffffffff1681565b6040518060800160405280606081526020016060815260200160608152602001600073ffffffffffffffffffffffffffffffffffffffff1681525090565b828054612629906131b8565b90600052602060002090601f01602090048101928261264b5760008555612692565b82601f1061266457805160ff1916838001178555612692565b82800160010185558215612692579182015b82811115612691578251825591602001919060010190612676565b5b50905061269f91906126a3565b5090565b5b808211156126bc5760008160009055506001016126a4565b5090565b600081519050919050565b600082825260208201905092915050565b6000819050602082019050919050565b600081519050919050565b600082825260208201905092915050565b60005b8381101561272657808201518184015260208101905061270b565b83811115612735576000848401525b50505050565b6000601f19601f8301169050919050565b6000612757826126ec565b61276181856126f7565b9350612771818560208601612708565b61277a8161273b565b840191505092915050565b600073ffffffffffffffffffffffffffffffffffffffff82169050919050565b60006127b082612785565b9050919050565b6127c0816127a5565b82525050565b600060808301600083015184820360008601526127e3828261274c565b915050602083015184820360208601526127fd828261274c565b91505060408301518482036040860152612817828261274c565b915050606083015161282c60608601826127b7565b508091505092915050565b600061284383836127c6565b905092915050565b6000602082019050919050565b6000612863826126c0565b61286d81856126cb565b93508360208202850161287f856126dc565b8060005b858110156128bb578484038952815161289c8582612837565b94506128a78361284b565b925060208a01995050600181019050612883565b50829750879550505050505092915050565b600060208201905081810360008301526128e78184612858565b905092915050565b6000604051905090565b600080fd5b600080fd5b600063ffffffff82169050919050565b61291c81612903565b811461292757600080fd5b50565b60008135905061293981612913565b92915050565b6000819050919050565b6129528161293f565b811461295d57600080fd5b50565b60008135905061296f81612949565b92915050565b6000806040838503121561298c5761298b6128f9565b5b600061299a8582860161292a565b92505060206129ab85828601612960565b9150509250929050565b6129be81612903565b82525050565b60006020820190506129d960008301846129b5565b92915050565b6000806000606084860312156129f8576129f76128f9565b5b6000612a068682870161292a565b9350506020612a178682870161292a565b9250506040612a288682870161292a565b9150509250925092565b60008115159050919050565b612a4781612a32565b82525050565b6000602082019050612a626000830184612a3e565b92915050565b600060208284031215612a7e57612a7d6128f9565b5b6000612a8c8482850161292a565b91505092915050565b600082825260208201905092915050565b6000612ab1826126ec565b612abb8185612a95565b9350612acb818560208601612708565b612ad48161273b565b840191505092915050565b612ae8816127a5565b82525050565b60006060820190508181036000830152612b088186612aa6565b9050612b176020830185612adf565b8181036040830152612b298184612aa6565b9050949350505050565b600080fd5b600080fd5b7f4e487b7100000000000000000000000000000000000000000000000000000000600052604160045260246000fd5b612b758261273b565b810181811067ffffffffffffffff82111715612b9457612b93612b3d565b5b80604052505050565b6000612ba76128ef565b9050612bb38282612b6c565b919050565b600067ffffffffffffffff821115612bd357612bd2612b3d565b5b612bdc8261273b565b9050602081019050919050565b82818337600083830152505050565b6000612c0b612c0684612bb8565b612b9d565b905082815260208101848484011115612c2757612c26612b38565b5b612c32848285612be9565b509392505050565b600082601f830112612c4f57612c4e612b33565b5b8135612c5f848260208601612bf8565b91505092915050565b600080600080600060a08688031215612c8457612c836128f9565b5b6000612c928882890161292a565b955050602086013567ffffffffffffffff811115612cb357612cb26128fe565b5b612cbf88828901612c3a565b945050604086013567ffffffffffffffff811115612ce057612cdf6128fe565b5b612cec88828901612c3a565b935050606086013567ffffffffffffffff811115612d0d57612d0c6128fe565b5b612d1988828901612c3a565b9250506080612d2a8882890161292a565b9150509295509295909350565b60008060008060808587031215612d5157612d506128f9565b5b6000612d5f8782880161292a565b945050602085013567ffffffffffffffff811115612d8057612d7f6128fe565b5b612d8c87828801612c3a565b935050604085013567ffffffffffffffff811115612dad57612dac6128fe565b5b612db987828801612c3a565b925050606085013567ffffffffffffffff811115612dda57612dd96128fe565b5b612de687828801612c3a565b91505092959194509250565b60006080820190508181036000830152612e0c8187612aa6565b90508181036020830152612e208186612aa6565b90508181036040830152612e348185612aa6565b9050612e436060830184612adf565b95945050505050565b6000608082019050612e6160008301876129b5565b612e6e60208301866129b5565b612e7b60408301856129b5565b612e886060830184612adf565b95945050505050565b600060c0820190508181036000830152612eab8189612aa6565b90508181036020830152612ebf8188612aa6565b90508181036040830152612ed38187612aa6565b9050612ee260608301866129b5565b612eef6080830185612adf565b612efc60a08301846129b5565b979650505050505050565b600060c0820190508181036000830152612f218189612aa6565b90508181036020830152612f358188612aa6565b90508181036040830152612f498187612aa6565b9050612f586060830186612adf565b612f6560808301856129b5565b612f7260a08301846129b5565b979650505050505050565b600081519050919050565b600082825260208201905092915050565b6000819050602082019050919050565b612fb281612903565b82525050565b6000612fc48383612fa9565b60208301905092915050565b6000602082019050919050565b6000612fe882612f7d565b612ff28185612f88565b9350612ffd83612f99565b8060005b8381101561302e5781516130158882612fb8565b975061302083612fd0565b925050600181019050613001565b5085935050505092915050565b600060208201905081810360008301526130558184612fdd565b905092915050565b600060808201905061307260008301876129b5565b61307f60208301866129b5565b61308c6040830185612adf565b61309960608301846129b5565b95945050505050565b6130ab816127a5565b81146130b657600080fd5b50565b6000813590506130c8816130a2565b92915050565b600080600080608085870312156130e8576130e76128f9565b5b600085013567ffffffffffffffff811115613106576131056128fe565b5b61311287828801612c3a565b945050602085013567ffffffffffffffff811115613133576131326128fe565b5b61313f87828801612c3a565b9350506040613150878288016130b9565b925050606085013567ffffffffffffffff811115613171576131706128fe565b5b61317d87828801612c3a565b91505092959194509250565b7f4e487b7100000000000000000000000000000000000000000000000000000000600052602260045260246000fd5b600060028204905060018216806131d057607f821691505b602082108114156131e4576131e3613189565b5b50919050565b7f4e487b7100000000000000000000000000000000000000000000000000000000600052603260045260246000fd5b7f4e487b7100000000000000000000000000000000000000000000000000000000600052601160045260246000fd5b600061325382612903565b915063ffffffff82141561326a57613269613219565b5b600182019050919050565b50565b6000613285600083612a95565b915061329082613275565b600082019050919050565b600060208201905081810360008301526132b481613278565b9050919050565b600081905092915050565b60006132d1826126ec565b6132db81856132bb565b93506132eb818560208601612708565b80840191505092915050565b600061330382846132c6565b915081905092915050565b60008190508160005260206000209050919050565b60008154613330816131b8565b61333a81866132bb565b94506001821660008114613355576001811461336657613399565b60ff19831686528186019350613399565b61336f8561330e565b60005b8381101561339157815481890152600182019150602081019050613372565b838801955050505b50505092915050565b60006133ae8284613323565b91508190509291505056fea2646970667358221220547f28add670df879b97de85ba67761efb1b07a43351f336c5edbcbd6c4f306b64736f6c634300080a0033",
  "immutableReferences": {},
  "source": "// SPDX-License-Identifier: MIT\npragma solidity >=0.4.22 <0.9.0;\n\ncontract supplyChain {\n    uint32 public product_id = 0;       // Product ID\n    uint32 public participant_id = 0;   // Participant ID\n    uint32 public owner_id = 0;         // Ownership ID\n\n    // A product object or group a product structure (collection of individual variables into one group)\n    struct product {\n        string modelNumber;\n        string partNumber;\n        string serialNumber;\n        address productOwner;\n        uint32 cost;\n        uint32 mfgTimeStamp;  // Manufacturer timestamp\n    }\n\n    // Mapping one product / element to another (list of products using the product_id as key)\n    mapping(uint32 => product) public products;\n\n    struct participant {\n        string userName;\n        string password;\n        string participantType;\n        address participantAddress;\n    }\n    mapping(uint32 => participant) public participants;\n    event AddedParticipant(uint32 indexed participantId);\n\n    struct ownership {\n        uint32 productId;\n        uint32 ownerId;\n        uint32 trxTimeStamp; // transaction timestamp\n        address productOwner;\n    }\n    mapping(uint32 => ownership) public ownerships; // ownerships by ownership ID (owner_id)\n\n    mapping(uint32 => uint32[]) public productTrack;  // ownerships by Product ID (product_id) / Movement track for a product\n\n    // Every time we emit a transfer ownership event, it's going to be logged in the blockchain, and it's indexed\n    // You only index 3 parameters, but the data can be stored for free (lightweight log)\n    event TransferOwnership(uint32 indexed productId);\n\n    // 'memory' means data is not stored on the blockchain (only in local memory)\n    function addParticipant(string memory _name, string memory _pass, address _pAdd, string memory _pType) public returns (uint32){\n        uint32 userId = participant_id++;\n        participants[userId].userName = _name;\n        participants[userId].password = _pass;\n        participants[userId].participantAddress = _pAdd;\n        participants[userId].participantType = _pType;\n\n        emit AddedParticipant(userId);\n\n        return userId;\n    }\n\n    function getParticipant(uint32 _participant_id) public view returns (string memory, address, string memory) {\n        return (participants[_participant_id].userName,\n                participants[_participant_id].participantAddress,\n                participants[_participant_id].participantType);\n    }\n\n    function getAllParticipants() public view returns (participant[] memory) {\n        participant[] memory allParticipants = new participant[](participant_id);\n\n        for (uint32 index = 0; index < participant_id; index ++) {\n            participant storage newParticipant = participants[index];\n            allParticipants[index] = newParticipant;\n        }\n\n        return allParticipants;\n    }\n\n    function addProduct(uint32 _ownerId,\n                        string memory _modelNumber,\n                        string memory _partNumber,\n                        string memory _serialNumber,\n                        uint32 _productCost) public returns (uint32) {\n        // You could use a 'require()' too instead of 'if'\n        if(keccak256(abi.encodePacked(participants[_ownerId].participantType)) == keccak256(\"Manufacturer\")) { // compare hashes of the strings\n            uint32 productId = product_id++;\n\n            products[productId].modelNumber = _modelNumber;\n            products[productId].partNumber = _partNumber;\n            products[productId].serialNumber = _serialNumber;\n            products[productId].cost = _productCost;\n            products[productId].productOwner = participants[_ownerId].participantAddress;\n            products[productId].mfgTimeStamp = uint32(block.timestamp);\n\n            return productId;\n        }\n\n       return 0;\n    }\n\n    modifier onlyOwner(uint32 _productId) {\n         require(msg.sender == products[_productId].productOwner, \"\");\n         _;\n    }\n\n    function getProduct(uint32 _productId) public view returns (string memory,string memory,string memory,uint32,address,uint32){\n        return (products[_productId].modelNumber,\n                products[_productId].partNumber,\n                products[_productId].serialNumber,\n                products[_productId].cost,\n                products[_productId].productOwner,\n                products[_productId].mfgTimeStamp);\n    }\n\n    // Transfer the ownership of the product\n    function newOwner(uint32 _user1Id,uint32 _user2Id, uint32 _prodId) onlyOwner(_prodId) public returns (bool) {\n        participant memory p1 = participants[_user1Id];\n        participant memory p2 = participants[_user2Id];\n        uint32 ownership_id = owner_id++;\n\n        if(keccak256(abi.encodePacked(p1.participantType)) == keccak256(\"Manufacturer\")\n            && keccak256(abi.encodePacked(p2.participantType))==keccak256(\"Supplier\")){\n            ownerships[ownership_id].productId = _prodId;\n            ownerships[ownership_id].productOwner = p2.participantAddress;\n            ownerships[ownership_id].ownerId = _user2Id;\n            ownerships[ownership_id].trxTimeStamp = uint32(block.timestamp);\n            products[_prodId].productOwner = p2.participantAddress;\n            productTrack[_prodId].push(ownership_id);\n            emit TransferOwnership(_prodId);\n\n            return (true);\n        }\n        else if(keccak256(abi.encodePacked(p1.participantType)) == keccak256(\"Supplier\") && keccak256(abi.encodePacked(p2.participantType))==keccak256(\"Supplier\")){\n            ownerships[ownership_id].productId = _prodId;\n            ownerships[ownership_id].productOwner = p2.participantAddress;\n            ownerships[ownership_id].ownerId = _user2Id;\n            ownerships[ownership_id].trxTimeStamp = uint32(block.timestamp);\n            products[_prodId].productOwner = p2.participantAddress;\n            productTrack[_prodId].push(ownership_id);\n            emit TransferOwnership(_prodId);\n\n            return (true);\n        }\n        else if(keccak256(abi.encodePacked(p1.participantType)) == keccak256(\"Supplier\") && keccak256(abi.encodePacked(p2.participantType))==keccak256(\"Consumer\")){\n            ownerships[ownership_id].productId = _prodId;\n            ownerships[ownership_id].productOwner = p2.participantAddress;\n            ownerships[ownership_id].ownerId = _user2Id;\n            ownerships[ownership_id].trxTimeStamp = uint32(block.timestamp);\n            products[_prodId].productOwner = p2.participantAddress;\n            productTrack[_prodId].push(ownership_id);\n            emit TransferOwnership(_prodId);\n\n            return (true);\n        }\n\n        return (false);\n    }\n\n   function getProvenance(uint32 _prodId) external view returns (uint32[] memory) {\n       return productTrack[_prodId];\n    }\n\n    function getOwnership(uint32 _regId)  public view returns (uint32,uint32,address,uint32) {\n        ownership memory r = ownerships[_regId];\n        return (r.productId,r.ownerId,r.productOwner,r.trxTimeStamp);\n    }\n\n    function authenticateParticipant(uint32 _uid,\n                                    string memory _uname,\n                                    string memory _pass,\n                                    string memory _utype) public view returns (bool){\n        if(keccak256(abi.encodePacked(participants[_uid].participantType)) == keccak256(abi.encodePacked(_utype))) {\n            if(keccak256(abi.encodePacked(participants[_uid].userName)) == keccak256(abi.encodePacked(_uname))) {\n                if(keccak256(abi.encodePacked(participants[_uid].password)) == keccak256(abi.encodePacked(_pass))) {\n                    return (true);\n                }\n            }\n        }\n\n        return (false);\n    }\n}\n",
  "sourcePath": "/Users/sergio.gonzalez/workspace/ethereum-lab/SupplyChainApp/contracts/SupplyChain.sol",
  "compiler": {
    "name": "solc",
    "version": "0.8.10+commit.fc410830.Emscripten.clang"
  },
  "schemaVersion": "3.4.4",
  "updatedAt": "2022-04-24T00:39:36.333Z",
  "networkType": "ethereum",
  "devdoc": {
    "kind": "dev",
    "methods": {},
    "version": 1
  },
  "userdoc": {
    "kind": "user",
    "methods": {},
    "version": 1
  }
}